{
  "contractName": "Booking",
  "abi": [
    {
      "inputs": [],
      "stateMutability": "nonpayable",
      "type": "constructor"
    },
    {
      "anonymous": false,
      "inputs": [
        {
          "indexed": true,
          "internalType": "address",
          "name": "tenant",
          "type": "address"
        },
        {
          "indexed": true,
          "internalType": "uint256",
          "name": "roomId",
          "type": "uint256"
        },
        {
          "indexed": true,
          "internalType": "uint256",
          "name": "date",
          "type": "uint256"
        }
      ],
      "name": "CheckoutSuccessfull",
      "type": "event"
    },
    {
      "anonymous": false,
      "inputs": [
        {
          "indexed": true,
          "internalType": "address",
          "name": "causer",
          "type": "address"
        },
        {
          "indexed": false,
          "internalType": "uint256",
          "name": "date",
          "type": "uint256"
        },
        {
          "indexed": true,
          "internalType": "enum Hotel.HOTEL_CATEGORY",
          "name": "newCategory",
          "type": "uint8"
        }
      ],
      "name": "HotelCategoryChanged",
      "type": "event"
    },
    {
      "anonymous": false,
      "inputs": [
        {
          "indexed": false,
          "internalType": "uint256",
          "name": "date",
          "type": "uint256"
        },
        {
          "indexed": true,
          "internalType": "address",
          "name": "causer",
          "type": "address"
        },
        {
          "indexed": true,
          "internalType": "uint256",
          "name": "id",
          "type": "uint256"
        }
      ],
      "name": "HotelCreated",
      "type": "event"
    },
    {
      "anonymous": false,
      "inputs": [
        {
          "indexed": true,
          "internalType": "address",
          "name": "user",
          "type": "address"
        },
        {
          "indexed": true,
          "internalType": "uint256",
          "name": "date",
          "type": "uint256"
        },
        {
          "indexed": true,
          "internalType": "uint256",
          "name": "fee",
          "type": "uint256"
        }
      ],
      "name": "HotelListingFeeChanged",
      "type": "event"
    },
    {
      "anonymous": false,
      "inputs": [
        {
          "indexed": true,
          "internalType": "address",
          "name": "causer",
          "type": "address"
        },
        {
          "indexed": true,
          "internalType": "address",
          "name": "newOwner",
          "type": "address"
        },
        {
          "indexed": false,
          "internalType": "uint256",
          "name": "date",
          "type": "uint256"
        }
      ],
      "name": "HotelOwnerChanged",
      "type": "event"
    },
    {
      "anonymous": false,
      "inputs": [
        {
          "indexed": true,
          "internalType": "address",
          "name": "user",
          "type": "address"
        },
        {
          "indexed": false,
          "internalType": "uint256",
          "name": "date",
          "type": "uint256"
        },
        {
          "indexed": false,
          "internalType": "uint256",
          "name": "id",
          "type": "uint256"
        }
      ],
      "name": "NewRoomCreated",
      "type": "event"
    },
    {
      "anonymous": false,
      "inputs": [
        {
          "indexed": true,
          "internalType": "address",
          "name": "previousOwner",
          "type": "address"
        },
        {
          "indexed": true,
          "internalType": "address",
          "name": "newOwner",
          "type": "address"
        }
      ],
      "name": "OwnershipTransferred",
      "type": "event"
    },
    {
      "anonymous": false,
      "inputs": [
        {
          "indexed": false,
          "internalType": "uint256",
          "name": "date",
          "type": "uint256"
        },
        {
          "indexed": true,
          "internalType": "address",
          "name": "tenant",
          "type": "address"
        },
        {
          "indexed": true,
          "internalType": "uint256",
          "name": "amountPaid",
          "type": "uint256"
        },
        {
          "indexed": true,
          "internalType": "uint256",
          "name": "roomId",
          "type": "uint256"
        }
      ],
      "name": "RoomBooked",
      "type": "event"
    },
    {
      "anonymous": false,
      "inputs": [
        {
          "indexed": true,
          "internalType": "address",
          "name": "user",
          "type": "address"
        },
        {
          "indexed": false,
          "internalType": "uint256",
          "name": "price",
          "type": "uint256"
        },
        {
          "indexed": true,
          "internalType": "uint256",
          "name": "date",
          "type": "uint256"
        }
      ],
      "name": "RoomNightPriceSet",
      "type": "event"
    },
    {
      "inputs": [
        {
          "internalType": "string",
          "name": "_name",
          "type": "string"
        },
        {
          "internalType": "string",
          "name": "_description",
          "type": "string"
        },
        {
          "internalType": "string",
          "name": "_location",
          "type": "string"
        },
        {
          "internalType": "string",
          "name": "_imageHash",
          "type": "string"
        }
      ],
      "name": "addHotel",
      "outputs": [],
      "stateMutability": "payable",
      "type": "function",
      "payable": true
    },
    {
      "inputs": [
        {
          "internalType": "uint256",
          "name": "_hotelId",
          "type": "uint256"
        },
        {
          "internalType": "uint256",
          "name": "_totalBeds",
          "type": "uint256"
        },
        {
          "internalType": "uint256",
          "name": "_pricePerNight",
          "type": "uint256"
        },
        {
          "internalType": "uint256",
          "name": "_number",
          "type": "uint256"
        },
        {
          "internalType": "string",
          "name": "_name",
          "type": "string"
        },
        {
          "internalType": "string",
          "name": "_description",
          "type": "string"
        }
      ],
      "name": "addRoom",
      "outputs": [],
      "stateMutability": "nonpayable",
      "type": "function"
    },
    {
      "inputs": [
        {
          "internalType": "uint256",
          "name": "",
          "type": "uint256"
        }
      ],
      "name": "bookings",
      "outputs": [
        {
          "internalType": "uint256",
          "name": "roomId",
          "type": "uint256"
        },
        {
          "internalType": "uint256",
          "name": "bookingId",
          "type": "uint256"
        },
        {
          "internalType": "uint256",
          "name": "bookingDate",
          "type": "uint256"
        },
        {
          "internalType": "uint256",
          "name": "amountPaid",
          "type": "uint256"
        },
        {
          "internalType": "address payable",
          "name": "tenant",
          "type": "address"
        }
      ],
      "stateMutability": "view",
      "type": "function",
      "constant": true
    },
    {
      "inputs": [
        {
          "internalType": "uint256",
          "name": "_hotelId",
          "type": "uint256"
        },
        {
          "internalType": "enum Hotel.HOTEL_CATEGORY",
          "name": "_category",
          "type": "uint8"
        }
      ],
      "name": "changeHotelCategory",
      "outputs": [],
      "stateMutability": "nonpayable",
      "type": "function"
    },
    {
      "inputs": [
        {
          "internalType": "address payable",
          "name": "_newOwner",
          "type": "address"
        },
        {
          "internalType": "uint256",
          "name": "_hotelId",
          "type": "uint256"
        }
      ],
      "name": "changeHotelOwner",
      "outputs": [],
      "stateMutability": "nonpayable",
      "type": "function"
    },
    {
      "inputs": [
        {
          "internalType": "uint256",
          "name": "",
          "type": "uint256"
        }
      ],
      "name": "existingHotelItemId",
      "outputs": [
        {
          "internalType": "bool",
          "name": "",
          "type": "bool"
        }
      ],
      "stateMutability": "view",
      "type": "function",
      "constant": true
    },
    {
      "inputs": [
        {
          "internalType": "string",
          "name": "",
          "type": "string"
        }
      ],
      "name": "existingHotelItemName",
      "outputs": [
        {
          "internalType": "bool",
          "name": "",
          "type": "bool"
        }
      ],
      "stateMutability": "view",
      "type": "function",
      "constant": true
    },
    {
      "inputs": [
        {
          "internalType": "uint256",
          "name": "",
          "type": "uint256"
        }
      ],
      "name": "existingRoomItem",
      "outputs": [
        {
          "internalType": "bool",
          "name": "",
          "type": "bool"
        }
      ],
      "stateMutability": "view",
      "type": "function",
      "constant": true
    },
    {
      "inputs": [
        {
          "internalType": "string",
          "name": "",
          "type": "string"
        }
      ],
      "name": "existingRoomItemName",
      "outputs": [
        {
          "internalType": "bool",
          "name": "",
          "type": "bool"
        }
      ],
      "stateMutability": "view",
      "type": "function",
      "constant": true
    },
    {
      "inputs": [
        {
          "internalType": "uint256",
          "name": "_hotelId",
          "type": "uint256"
        }
      ],
      "name": "getHotelBioData",
      "outputs": [
        {
          "internalType": "uint256",
          "name": "_id",
          "type": "uint256"
        },
        {
          "internalType": "uint256",
          "name": "_totalRooms",
          "type": "uint256"
        },
        {
          "internalType": "uint256",
          "name": "_date",
          "type": "uint256"
        },
        {
          "internalType": "string",
          "name": "_name",
          "type": "string"
        },
        {
          "internalType": "string",
          "name": "_description",
          "type": "string"
        },
        {
          "internalType": "string",
          "name": "_location",
          "type": "string"
        },
        {
          "internalType": "enum Hotel.HOTEL_CATEGORY",
          "name": "_category",
          "type": "uint8"
        },
        {
          "internalType": "string",
          "name": "_photo",
          "type": "string"
        }
      ],
      "stateMutability": "view",
      "type": "function",
      "constant": true
    },
    {
      "inputs": [
        {
          "internalType": "uint256",
          "name": "_roomId",
          "type": "uint256"
        }
      ],
      "name": "getId",
      "outputs": [
        {
          "internalType": "uint256",
          "name": "",
          "type": "uint256"
        }
      ],
      "stateMutability": "view",
      "type": "function",
      "constant": true
    },
    {
      "inputs": [
        {
          "internalType": "uint256",
          "name": "hotelId",
          "type": "uint256"
        }
      ],
      "name": "getImageHash",
      "outputs": [
        {
          "internalType": "string",
          "name": "_imageHash",
          "type": "string"
        }
      ],
      "stateMutability": "view",
      "type": "function",
      "constant": true
    },
    {
      "inputs": [
        {
          "internalType": "uint256",
          "name": "_roomId",
          "type": "uint256"
        }
      ],
      "name": "getName",
      "outputs": [
        {
          "internalType": "string",
          "name": "",
          "type": "string"
        }
      ],
      "stateMutability": "view",
      "type": "function",
      "constant": true
    },
    {
      "inputs": [
        {
          "internalType": "uint256",
          "name": "_roomId",
          "type": "uint256"
        }
      ],
      "name": "getRoomBioData",
      "outputs": [
        {
          "internalType": "uint256",
          "name": "_id",
          "type": "uint256"
        },
        {
          "internalType": "uint256",
          "name": "_numOfBeds",
          "type": "uint256"
        },
        {
          "internalType": "uint256",
          "name": "_hotelId",
          "type": "uint256"
        },
        {
          "internalType": "uint256",
          "name": "_pricePerNight",
          "type": "uint256"
        },
        {
          "internalType": "uint256",
          "name": "_number",
          "type": "uint256"
        },
        {
          "internalType": "bool",
          "name": "_isBooked",
          "type": "bool"
        },
        {
          "internalType": "address",
          "name": "_user",
          "type": "address"
        },
        {
          "internalType": "string",
          "name": "_name",
          "type": "string"
        },
        {
          "internalType": "string",
          "name": "_description",
          "type": "string"
        }
      ],
      "stateMutability": "view",
      "type": "function",
      "constant": true
    },
    {
      "inputs": [],
      "name": "hotelCategory",
      "outputs": [
        {
          "internalType": "enum Hotel.HOTEL_CATEGORY",
          "name": "",
          "type": "uint8"
        }
      ],
      "stateMutability": "view",
      "type": "function",
      "constant": true
    },
    {
      "inputs": [
        {
          "internalType": "uint256",
          "name": "",
          "type": "uint256"
        }
      ],
      "name": "hotelItemId",
      "outputs": [
        {
          "internalType": "uint256",
          "name": "id",
          "type": "uint256"
        },
        {
          "internalType": "uint256",
          "name": "totalRooms",
          "type": "uint256"
        },
        {
          "internalType": "uint256",
          "name": "creationDate",
          "type": "uint256"
        },
        {
          "internalType": "string",
          "name": "name",
          "type": "string"
        },
        {
          "internalType": "enum Hotel.HOTEL_CATEGORY",
          "name": "hotelCategory",
          "type": "uint8"
        },
        {
          "internalType": "string",
          "name": "description",
          "type": "string"
        },
        {
          "internalType": "string",
          "name": "locationAddress",
          "type": "string"
        },
        {
          "internalType": "address payable",
          "name": "user",
          "type": "address"
        },
        {
          "internalType": "string",
          "name": "imageHash",
          "type": "string"
        }
      ],
      "stateMutability": "view",
      "type": "function",
      "constant": true
    },
    {
      "inputs": [
        {
          "internalType": "uint256",
          "name": "",
          "type": "uint256"
        }
      ],
      "name": "hotelItems",
      "outputs": [
        {
          "internalType": "uint256",
          "name": "id",
          "type": "uint256"
        },
        {
          "internalType": "uint256",
          "name": "totalRooms",
          "type": "uint256"
        },
        {
          "internalType": "uint256",
          "name": "creationDate",
          "type": "uint256"
        },
        {
          "internalType": "string",
          "name": "name",
          "type": "string"
        },
        {
          "internalType": "enum Hotel.HOTEL_CATEGORY",
          "name": "hotelCategory",
          "type": "uint8"
        },
        {
          "internalType": "string",
          "name": "description",
          "type": "string"
        },
        {
          "internalType": "string",
          "name": "locationAddress",
          "type": "string"
        },
        {
          "internalType": "address payable",
          "name": "user",
          "type": "address"
        },
        {
          "internalType": "string",
          "name": "imageHash",
          "type": "string"
        }
      ],
      "stateMutability": "view",
      "type": "function",
      "constant": true
    },
    {
      "inputs": [],
      "name": "hotelListingFee",
      "outputs": [
        {
          "internalType": "uint256",
          "name": "",
          "type": "uint256"
        }
      ],
      "stateMutability": "view",
      "type": "function",
      "constant": true
    },
    {
      "inputs": [
        {
          "internalType": "address",
          "name": "",
          "type": "address"
        }
      ],
      "name": "hotelOwner",
      "outputs": [
        {
          "internalType": "uint256",
          "name": "id",
          "type": "uint256"
        },
        {
          "internalType": "uint256",
          "name": "totalRooms",
          "type": "uint256"
        },
        {
          "internalType": "uint256",
          "name": "creationDate",
          "type": "uint256"
        },
        {
          "internalType": "string",
          "name": "name",
          "type": "string"
        },
        {
          "internalType": "enum Hotel.HOTEL_CATEGORY",
          "name": "hotelCategory",
          "type": "uint8"
        },
        {
          "internalType": "string",
          "name": "description",
          "type": "string"
        },
        {
          "internalType": "string",
          "name": "locationAddress",
          "type": "string"
        },
        {
          "internalType": "address payable",
          "name": "user",
          "type": "address"
        },
        {
          "internalType": "string",
          "name": "imageHash",
          "type": "string"
        }
      ],
      "stateMutability": "view",
      "type": "function",
      "constant": true
    },
    {
      "inputs": [],
      "name": "listAllHotels",
      "outputs": [
        {
          "components": [
            {
              "internalType": "uint256",
              "name": "id",
              "type": "uint256"
            },
            {
              "internalType": "uint256",
              "name": "totalRooms",
              "type": "uint256"
            },
            {
              "internalType": "uint256",
              "name": "creationDate",
              "type": "uint256"
            },
            {
              "internalType": "string",
              "name": "name",
              "type": "string"
            },
            {
              "internalType": "enum Hotel.HOTEL_CATEGORY",
              "name": "hotelCategory",
              "type": "uint8"
            },
            {
              "internalType": "string",
              "name": "description",
              "type": "string"
            },
            {
              "internalType": "string",
              "name": "locationAddress",
              "type": "string"
            },
            {
              "internalType": "address payable",
              "name": "user",
              "type": "address"
            },
            {
              "internalType": "string",
              "name": "imageHash",
              "type": "string"
            }
          ],
          "internalType": "struct Hotel.HotelItem[]",
          "name": "",
          "type": "tuple[]"
        }
      ],
      "stateMutability": "view",
      "type": "function",
      "constant": true
    },
    {
      "inputs": [],
      "name": "listRooms",
      "outputs": [
        {
          "components": [
            {
              "internalType": "uint256",
              "name": "id",
              "type": "uint256"
            },
            {
              "internalType": "uint256",
              "name": "totalBeds",
              "type": "uint256"
            },
            {
              "internalType": "uint256",
              "name": "hotelId",
              "type": "uint256"
            },
            {
              "internalType": "uint256",
              "name": "pricePerNight",
              "type": "uint256"
            },
            {
              "internalType": "uint256",
              "name": "number",
              "type": "uint256"
            },
            {
              "internalType": "bool",
              "name": "isBooked",
              "type": "bool"
            },
            {
              "internalType": "address payable",
              "name": "user",
              "type": "address"
            },
            {
              "internalType": "string",
              "name": "name",
              "type": "string"
            },
            {
              "internalType": "string",
              "name": "description",
              "type": "string"
            }
          ],
          "internalType": "struct Room.RoomItem[]",
          "name": "",
          "type": "tuple[]"
        }
      ],
      "stateMutability": "view",
      "type": "function",
      "constant": true
    },
    {
      "inputs": [],
      "name": "owner",
      "outputs": [
        {
          "internalType": "address",
          "name": "",
          "type": "address"
        }
      ],
      "stateMutability": "view",
      "type": "function",
      "constant": true
    },
    {
      "inputs": [],
      "name": "renounceOwnership",
      "outputs": [],
      "stateMutability": "nonpayable",
      "type": "function"
    },
    {
      "inputs": [
        {
          "internalType": "uint256",
          "name": "",
          "type": "uint256"
        }
      ],
      "name": "roomItemId",
      "outputs": [
        {
          "internalType": "uint256",
          "name": "id",
          "type": "uint256"
        },
        {
          "internalType": "uint256",
          "name": "totalBeds",
          "type": "uint256"
        },
        {
          "internalType": "uint256",
          "name": "hotelId",
          "type": "uint256"
        },
        {
          "internalType": "uint256",
          "name": "pricePerNight",
          "type": "uint256"
        },
        {
          "internalType": "uint256",
          "name": "number",
          "type": "uint256"
        },
        {
          "internalType": "bool",
          "name": "isBooked",
          "type": "bool"
        },
        {
          "internalType": "address payable",
          "name": "user",
          "type": "address"
        },
        {
          "internalType": "string",
          "name": "name",
          "type": "string"
        },
        {
          "internalType": "string",
          "name": "description",
          "type": "string"
        }
      ],
      "stateMutability": "view",
      "type": "function",
      "constant": true
    },
    {
      "inputs": [
        {
          "internalType": "address",
          "name": "",
          "type": "address"
        }
      ],
      "name": "roomOwner",
      "outputs": [
        {
          "internalType": "uint256",
          "name": "id",
          "type": "uint256"
        },
        {
          "internalType": "uint256",
          "name": "totalBeds",
          "type": "uint256"
        },
        {
          "internalType": "uint256",
          "name": "hotelId",
          "type": "uint256"
        },
        {
          "internalType": "uint256",
          "name": "pricePerNight",
          "type": "uint256"
        },
        {
          "internalType": "uint256",
          "name": "number",
          "type": "uint256"
        },
        {
          "internalType": "bool",
          "name": "isBooked",
          "type": "bool"
        },
        {
          "internalType": "address payable",
          "name": "user",
          "type": "address"
        },
        {
          "internalType": "string",
          "name": "name",
          "type": "string"
        },
        {
          "internalType": "string",
          "name": "description",
          "type": "string"
        }
      ],
      "stateMutability": "view",
      "type": "function",
      "constant": true
    },
    {
      "inputs": [
        {
          "internalType": "uint256",
          "name": "",
          "type": "uint256"
        }
      ],
      "name": "roomTenant",
      "outputs": [
        {
          "internalType": "address",
          "name": "",
          "type": "address"
        }
      ],
      "stateMutability": "view",
      "type": "function",
      "constant": true
    },
    {
      "inputs": [
        {
          "internalType": "uint256",
          "name": "",
          "type": "uint256"
        }
      ],
      "name": "rooms",
      "outputs": [
        {
          "internalType": "uint256",
          "name": "id",
          "type": "uint256"
        },
        {
          "internalType": "uint256",
          "name": "totalBeds",
          "type": "uint256"
        },
        {
          "internalType": "uint256",
          "name": "hotelId",
          "type": "uint256"
        },
        {
          "internalType": "uint256",
          "name": "pricePerNight",
          "type": "uint256"
        },
        {
          "internalType": "uint256",
          "name": "number",
          "type": "uint256"
        },
        {
          "internalType": "bool",
          "name": "isBooked",
          "type": "bool"
        },
        {
          "internalType": "address payable",
          "name": "user",
          "type": "address"
        },
        {
          "internalType": "string",
          "name": "name",
          "type": "string"
        },
        {
          "internalType": "string",
          "name": "description",
          "type": "string"
        }
      ],
      "stateMutability": "view",
      "type": "function",
      "constant": true
    },
    {
      "inputs": [
        {
          "internalType": "uint256",
          "name": "hotelId",
          "type": "uint256"
        },
        {
          "internalType": "string",
          "name": "imageHash",
          "type": "string"
        }
      ],
      "name": "setImageHash",
      "outputs": [],
      "stateMutability": "nonpayable",
      "type": "function"
    },
    {
      "inputs": [
        {
          "internalType": "uint256",
          "name": "_fee",
          "type": "uint256"
        }
      ],
      "name": "setListingFee",
      "outputs": [],
      "stateMutability": "nonpayable",
      "type": "function"
    },
    {
      "inputs": [
        {
          "internalType": "uint256",
          "name": "_roomId",
          "type": "uint256"
        },
        {
          "internalType": "uint256",
          "name": "_price",
          "type": "uint256"
        }
      ],
      "name": "setNightPrice",
      "outputs": [],
      "stateMutability": "nonpayable",
      "type": "function"
    },
    {
      "inputs": [],
      "name": "totalBookings",
      "outputs": [
        {
          "internalType": "uint256",
          "name": "",
          "type": "uint256"
        }
      ],
      "stateMutability": "view",
      "type": "function",
      "constant": true
    },
    {
      "inputs": [],
      "name": "totalHotels",
      "outputs": [
        {
          "internalType": "uint256",
          "name": "",
          "type": "uint256"
        }
      ],
      "stateMutability": "view",
      "type": "function",
      "constant": true
    },
    {
      "inputs": [],
      "name": "totalRooms",
      "outputs": [
        {
          "internalType": "uint256",
          "name": "",
          "type": "uint256"
        }
      ],
      "stateMutability": "view",
      "type": "function",
      "constant": true
    },
    {
      "inputs": [
        {
          "internalType": "address",
          "name": "newOwner",
          "type": "address"
        }
      ],
      "name": "transferOwnership",
      "outputs": [],
      "stateMutability": "nonpayable",
      "type": "function"
    },
    {
      "inputs": [
        {
          "internalType": "uint256",
          "name": "_roomId",
          "type": "uint256"
        },
        {
          "internalType": "uint256",
          "name": "_numOfNights",
          "type": "uint256"
        }
      ],
      "name": "bookRoom",
      "outputs": [],
      "stateMutability": "payable",
      "type": "function",
      "payable": true
    },
    {
      "inputs": [
        {
          "internalType": "uint256",
          "name": "_roomId",
          "type": "uint256"
        }
      ],
      "name": "checkOut",
      "outputs": [],
      "stateMutability": "payable",
      "type": "function",
      "payable": true
    }
  ],
  "bytecode": "0x60806040526000600255660187152d40e0006003556000600b5560006014553480156200002b57600080fd5b50620000373362000041565b6001805562000091565b600080546001600160a01b038381166001600160a01b0319831681178455604051919092169283917f8be0079c531659141344cd1fd0a4f28419497f9722a3daafe3b4186f6b6457e09190a35050565b613b1980620000a16000396000f3fe60806040526004361061020f5760003560e01c806374dbda0511610118578063af5537fa116100a0578063c5a56e821161006f578063c5a56e82146106d2578063c89e4963146106f2578063cee9e07814610712578063f2fde38b14610742578063fd5fddd81461076257600080fd5b8063af5537fa14610664578063b2afef821461067a578063bbc02ce21461069a578063c210c532146106b057600080fd5b806391aa8489116100e757806391aa8489146105d85780639524a38e146105ee578063958aa59b1461060e5780639668ce3e1461062e5780639e3edce91461064457600080fd5b806374dbda051461052957806380865877146105595780638a3a1a18146105a75780638da5cb5b146105ba57600080fd5b80633716236e1161019b578063545a153a1161016a578063545a153a1461046c57806362834462146104a75780636b8ff574146104d457806370f3bfd8146104f4578063715018a61461051457600080fd5b80633716236e146103bc578063387329f9146103f15780634dce717e146104115780634ee9a94d1461044c57600080fd5b8063131dbd09116101e2578063131dbd09146102e15780631bae0ac8146103035780631bd2eeee146103385780631dab301e1461034b578063307764971461039c57600080fd5b80630aaecc35146102145780630af272f7146102645780630fa0200d1461029857806310f70192146102bf575b600080fd5b34801561022057600080fd5b5061024f61022f3660046130fc565b805160208183018101805160128252928201919093012091525460ff1681565b60405190151581526020015b60405180910390f35b34801561027057600080fd5b5061028461027f366004613139565b610775565b60405161025b9897969594939291906131da565b3480156102a457600080fd5b506005546102b29060ff1681565b60405161025b9190613258565b3480156102cb57600080fd5b506102d4610a3c565b60405161025b9190613266565b3480156102ed57600080fd5b506103016102fc366004613139565b610c19565b005b34801561030f57600080fd5b5061032361031e366004613139565b610ca8565b60405161025b99989796959493929190613345565b610301610346366004613139565b610e25565b34801561035757600080fd5b5061036b610366366004613139565b610f67565b6040805195865260208601949094529284019190915260608301526001600160a01b0316608082015260a00161025b565b3480156103a857600080fd5b506103236103b7366004613139565b610fb1565b3480156103c857600080fd5b506103dc6103d73660046133c7565b61100b565b60405161025b999897969594939291906133eb565b3480156103fd57600080fd5b5061030161040c36600461346a565b611209565b34801561041d57600080fd5b5061024f61042c3660046130fc565b8051602081830181018051600a8252928201919093012091525460ff1681565b34801561045857600080fd5b506103236104673660046133c7565b6113a8565b34801561047857600080fd5b50610499610487366004613139565b60009081526010602052604090205490565b60405190815260200161025b565b3480156104b357600080fd5b506104c76104c2366004613139565b611402565b60405161025b9190613496565b3480156104e057600080fd5b506104c76104ef366004613139565b6114d9565b34801561050057600080fd5b5061030161050f3660046134a9565b6114f9565b34801561052057600080fd5b50610301611644565b34801561053557600080fd5b5061024f610544366004613139565b60096020526000908152604090205460ff1681565b34801561056557600080fd5b5061058f610574366004613139565b600f602052600090815260409020546001600160a01b031681565b6040516001600160a01b03909116815260200161025b565b6103016105b53660046134dd565b611658565b3480156105c657600080fd5b506000546001600160a01b031661058f565b3480156105e457600080fd5b5061049960035481565b3480156105fa57600080fd5b506103dc610609366004613139565b61193d565b34801561061a57600080fd5b50610323610629366004613139565b61196d565b34801561063a57600080fd5b5061049960145481565b34801561065057600080fd5b5061030161065f3660046134ff565b611b48565b34801561067057600080fd5b50610499600b5481565b34801561068657600080fd5b50610301610695366004613546565b611b9b565b3480156106a657600080fd5b5061049960025481565b3480156106bc57600080fd5b506106c561224a565b60405161025b91906135cf565b3480156106de57600080fd5b506103016106ed3660046134dd565b612551565b3480156106fe57600080fd5b506103dc61070d366004613139565b612652565b34801561071e57600080fd5b5061024f61072d366004613139565b60116020526000908152604090205460ff1681565b34801561074e57600080fd5b5061030161075d3660046133c7565b612697565b6103016107703660046136d0565b612710565b600081815260096020526040812054819081906060908190819084908290899060ff1615156001146107c25760405162461bcd60e51b81526004016107b99061377d565b60405180910390fd5b60008a8152600760205260409020805460018201546002830154600384018054939d50919b509950906107f4906137ab565b80601f0160208091040260200160405190810160405280929190818152602001828054610820906137ab565b801561086d5780601f106108425761010080835404028352916020019161086d565b820191906000526020600020905b81548152906001019060200180831161085057829003601f168201915b50505050509650806005018054610883906137ab565b80601f01602080910402602001604051908101604052809291908181526020018280546108af906137ab565b80156108fc5780601f106108d1576101008083540402835291602001916108fc565b820191906000526020600020905b8154815290600101906020018083116108df57829003601f168201915b50505050509550806006018054610912906137ab565b80601f016020809104026020016040519081016040528092919081815260200182805461093e906137ab565b801561098b5780601f106109605761010080835404028352916020019161098b565b820191906000526020600020905b81548152906001019060200180831161096e57829003601f168201915b50505050600483015460088401805493985060ff9091169650916109af91506137ab565b80601f01602080910402602001604051908101604052809291908181526020018280546109db906137ab565b8015610a285780601f106109fd57610100808354040283529160200191610a28565b820191906000526020600020905b815481529060010190602001808311610a0b57829003601f168201915b505050505092505050919395975091939597565b6060600d805480602002602001604051908101604052809291908181526020016000905b82821015610c10576000848152602090819020604080516101208101825260088602909201805483526001810154938301939093526002830154908201526003820154606082015260048201546080820152600582015460ff8116151560a083015261010090046001600160a01b031660c082015260068201805491929160e084019190610aed906137ab565b80601f0160208091040260200160405190810160405280929190818152602001828054610b19906137ab565b8015610b665780601f10610b3b57610100808354040283529160200191610b66565b820191906000526020600020905b815481529060010190602001808311610b4957829003601f168201915b50505050508152602001600782018054610b7f906137ab565b80601f0160208091040260200160405190810160405280929190818152602001828054610bab906137ab565b8015610bf85780601f10610bcd57610100808354040283529160200191610bf8565b820191906000526020600020905b815481529060010190602001808311610bdb57829003601f168201915b50505050508152505081526020019060010190610a60565b50505050905090565b610c21612d59565b80600003610c715760405162461bcd60e51b815260206004820152601a60248201527f4c697374696e67204665652043616e6e6f74206265207a65726f00000000000060448201526064016107b9565b60038190556040518190429033907fd86cac97cd3caa153b72db918dc0feb1ed9683dfd389c345d07f7d00390b63b790600090a450565b600d8181548110610cb857600080fd5b60009182526020909120600890910201805460018201546002830154600384015460048501546005860154600687018054969850949693959294919360ff8216936101009092046001600160a01b0316929091610d14906137ab565b80601f0160208091040260200160405190810160405280929190818152602001828054610d40906137ab565b8015610d8d5780601f10610d6257610100808354040283529160200191610d8d565b820191906000526020600020905b815481529060010190602001808311610d7057829003601f168201915b505050505090806007018054610da2906137ab565b80601f0160208091040260200160405190810160405280929190818152602001828054610dce906137ab565b8015610e1b5780601f10610df057610100808354040283529160200191610e1b565b820191906000526020600020905b815481529060010190602001808311610dfe57829003601f168201915b5050505050905089565b600260015403610e475760405162461bcd60e51b81526004016107b9906137e5565b6002600190815560008281526010602052604090206005810154909160ff909116151514610eac5760405162461bcd60e51b8152602060048201526012602482015271149bdbdb481a5cc81b9bdd08189bdbdad95960721b60448201526064016107b9565b80546000908152600f60205260409020546001600160a01b03163314610f235760405162461bcd60e51b815260206004820152602660248201527f596f752063757272656e746c7920646f6e742072657369646520696e207468696044820152657320726f6f6d60d01b60648201526084016107b9565b60058101805460ff19169055805460405142919033907f1e7d243bbd980a7b6407550d96c8d6557b193cd3a9cf91f820d9f6720636304290600090a4505060018055565b60138181548110610f7757600080fd5b600091825260209091206005909102018054600182015460028301546003840154600490940154929450909290916001600160a01b031685565b60106020526000908152604090208054600182015460028301546003840154600485015460058601546006870180549697959694959394929360ff8316936101009093046001600160a01b031692909190610d14906137ab565b60086020526000908152604090208054600182015460028301546003840180549394929391929161103b906137ab565b80601f0160208091040260200160405190810160405280929190818152602001828054611067906137ab565b80156110b45780601f10611089576101008083540402835291602001916110b4565b820191906000526020600020905b81548152906001019060200180831161109757829003601f168201915b5050506004840154600585018054949560ff9092169491935091506110d8906137ab565b80601f0160208091040260200160405190810160405280929190818152602001828054611104906137ab565b80156111515780601f1061112657610100808354040283529160200191611151565b820191906000526020600020905b81548152906001019060200180831161113457829003601f168201915b505050505090806006018054611166906137ab565b80601f0160208091040260200160405190810160405280929190818152602001828054611192906137ab565b80156111df5780601f106111b4576101008083540402835291602001916111df565b820191906000526020600020905b8154815290600101906020018083116111c257829003601f168201915b505050600784015460088501805494956001600160a01b03909216949193509150610da2906137ab565b600081815260096020526040902054819060ff16151560011461123e5760405162461bcd60e51b81526004016107b99061377d565b6000828152600760208190526040909120015482906001600160a01b0316331461127a5760405162461bcd60e51b81526004016107b99061381c565b6001600160a01b03841633036112dd5760405162461bcd60e51b815260206004820152602260248201527f596f75206172652074686520726967687466756c206f776e657220616c726561604482015261647960f01b60648201526084016107b9565b6001600160a01b03841661133e5760405162461bcd60e51b815260206004820152602260248201527f506c65617365207370656369667920612076616c696420455448206164647265604482015261737360f01b60648201526084016107b9565b60008381526007602081815260409283902090910180546001600160a01b0319166001600160a01b038816908117909155915142815233917fa4384cd8553d716f837cc7d68ed60529f9672b59cf96f1ce8bef3334183db34a91015b60405180910390a350505050565b600e6020526000908152604090208054600182015460028301546003840154600485015460058601546006870180549697959694959394929360ff8316936101009093046001600160a01b031692909190610d14906137ab565b60008181526009602052604090205460609060ff1615156001146114385760405162461bcd60e51b81526004016107b99061377d565b60008281526007602052604090206008018054611454906137ab565b80601f0160208091040260200160405190810160405280929190818152602001828054611480906137ab565b80156114cd5780601f106114a2576101008083540402835291602001916114cd565b820191906000526020600020905b8154815290600101906020018083116114b057829003601f168201915b50505050509050919050565b6000818152601060205260409020600601805460609190611454906137ab565b600082815260096020526040902054829060ff16151560011461152e5760405162461bcd60e51b81526004016107b99061377d565b6000838152600760208190526040909120015483906001600160a01b0316331461156a5760405162461bcd60e51b81526004016107b99061381c565b60008481526007602052604081209084600681111561158b5761158b6131a2565b0361159857611598613853565b600481015460ff1660068111156115b1576115b16131a2565b8460068111156115c3576115c36131a2565b036115d0576115d0613853565b60048101805485919060ff191660018360068111156115f1576115f16131a2565b0217905550836006811115611608576116086131a2565b60405142815233907ff5b844f9650efd8a638976417da0e54ababae9d5ae6ec7dbc97124f00d5a5c5e9060200160405180910390a35050505050565b61164c612d59565b6116566000612db3565b565b60026001540361167a5760405162461bcd60e51b81526004016107b9906137e5565b60026001908155600083815260116020526040902054839160ff9091161515146116b65760405162461bcd60e51b81526004016107b990613869565b600083815260106020526040902060050154839060ff161561170d5760405162461bcd60e51b815260206004820152601060248201526f149bdbdb481a5cc81bd8d8dd5c1a595960821b60448201526064016107b9565b6000848152601060205260408120600381015490919061172e908690612e03565b600583015490915061010090046001600160a01b031633036117925760405162461bcd60e51b815260206004820152601d60248201527f596f752063616e6e6f7420626f6f6b20796f7572206f776e20726f6f6d00000060448201526064016107b9565b33318111156117d85760405162461bcd60e51b8152602060048201526012602482015271496e73756666696369656e742046756e647360701b60448201526064016107b9565b846000036118285760405162461bcd60e51b815260206004820152601f60248201527f4e756d626572206f66206e69676874732063616e6e6f74206265207a65726f0060448201526064016107b9565b80341461189f576040805162461bcd60e51b81526020600482015260248101919091527f506c65617365207061792074686520626f6f6b696e672066656520626173656460448201527f206f6e206e756d626572206f66206e696768747320746f206265207370656e7460648201526084016107b9565b6118ad601580546001019055565b60006118b860155490565b60058401546040519192506001600160a01b0361010090910416903480156108fc02916000818181858888f193505050501580156118fa573d6000803e3d6000fd5b5061190487612e18565b825461191290823433612e6c565b5050546000908152600f6020526040902080546001600160a01b031916331790555050600180555050565b60076020526000908152604090208054600182015460028301546003840180549394929391929161103b906137ab565b60008181526011602052604081205481908190819081908190819060609081908a9060ff1615156001146119b35760405162461bcd60e51b81526004016107b990613869565b6000601060008d8152602001908152602001600020905080600001549a50806001015499508060020154985080600301549750806004015496508060050160009054906101000a900460ff1695508060050160019054906101000a90046001600160a01b03169450806006018054611a2a906137ab565b80601f0160208091040260200160405190810160405280929190818152602001828054611a56906137ab565b8015611aa35780601f10611a7857610100808354040283529160200191611aa3565b820191906000526020600020905b815481529060010190602001808311611a8657829003601f168201915b50505050509350806007018054611ab9906137ab565b80601f0160208091040260200160405190810160405280929190818152602001828054611ae5906137ab565b8015611b325780601f10611b0757610100808354040283529160200191611b32565b820191906000526020600020905b815481529060010190602001808311611b1557829003601f168201915b5050505050925050509193959799909294969850565b60008281526009602052604090205460ff161515600114611b7b5760405162461bcd60e51b81526004016107b99061377d565b6000828152600760205260409020600801611b9682826138e4565b505050565b600086815260096020526040902054869060ff161515600114611bd05760405162461bcd60e51b81526004016107b99061377d565b6000878152600760208190526040909120015487906001600160a01b03163314611c0c5760405162461bcd60e51b81526004016107b99061381c565b836000815111611c5e5760405162461bcd60e51b815260206004820152601c60248201527f506c6561736520737065636966792074686520726f6f6d206e616d650000000060448201526064016107b9565b601281604051611c6e91906139a4565b9081526040519081900360200190205460ff1615611cc15760405162461bcd60e51b815260206004820152601060248201526f526f6f6d204e616d652045786973747360801b60448201526064016107b9565b33611ccb57600080fd5b87600003611d1b5760405162461bcd60e51b815260206004820152601d60248201527f4e756d626572206f6620626564732063616e6e6f74206265207a65726f00000060448201526064016107b9565b6000845111611d785760405162461bcd60e51b815260206004820152602360248201527f506c6561736520737065636966792074686520726f6f6d20646573637269707460448201526234b7b760e91b60648201526084016107b9565b86600003611dd45760405162461bcd60e51b815260206004820152602360248201527f54686520726f6f6d206e696768742070726963652063616e6e6f74206265207a60448201526265726f60e81b60648201526084016107b9565b611de2600c80546001019055565b6000611ded600c5490565b90506000600760008c81526020019081526020016000206000015490506000600760008d81526020019081526020016000206001015490506040518061012001604052808481526020018c81526020018381526020018b81526020018a8152602001600015158152602001336001600160a01b031681526020018981526020018881525060106000858152602001908152602001600020600082015181600001556020820151816001015560408201518160020155606082015181600301556080820151816004015560a08201518160050160006101000a81548160ff02191690831515021790555060c08201518160050160016101000a8154816001600160a01b0302191690836001600160a01b0316021790555060e0820151816006019081611f1891906138e4565b506101008201516007820190611f2e90826138e4565b5050506000838152601060205260408120600d80546001818101835591909352815460089093027fd7b6990105719101dabeb77144f2a3385c8033acd3af97e9423a695e81ad1eb58101938455908201547fd7b6990105719101dabeb77144f2a3385c8033acd3af97e9423a695e81ad1eb682015560028201547fd7b6990105719101dabeb77144f2a3385c8033acd3af97e9423a695e81ad1eb782015560038201547fd7b6990105719101dabeb77144f2a3385c8033acd3af97e9423a695e81ad1eb882015560048201547fd7b6990105719101dabeb77144f2a3385c8033acd3af97e9423a695e81ad1eb98201556005820180547fd7b6990105719101dabeb77144f2a3385c8033acd3af97e9423a695e81ad1eba8301805460ff909216151560ff1983168117825592546001600160a01b03610100918290041602610100600160a81b03199093166001600160a81b0319909216919091179190911790559091907fd7b6990105719101dabeb77144f2a3385c8033acd3af97e9423a695e81ad1ebb016120c160068401826139c0565b506007818101906120d4908401826139c0565b5050506000838152601060209081526040808320338452600e909252909120815481556001808301549082015560028083015490820155600380830154908201556004808301549082015560058083018054918301805460ff909316151560ff198416811782559154610100908190046001600160a01b031602610100600160a81b03199092166001600160a81b031990931692909217179055600680820190612180908401826139c0565b50600781810190612193908401826139c0565b506121a39150829050600161304d565b600b549091506121b490600161304d565b600b5560008381526011602052604090819020805460ff1916600190811790915590516012906121e5908b906139a4565b9081526040805160209281900383018120805460ff19169415159490941790935542835290820185905233917f3733808b347b3e95cb4b664d5c8e8fe364fc4dd34b77f49cde3ba2564d78888c910160405180910390a2505050505050505050505050565b60606006805480602002602001604051908101604052809291908181526020016000905b82821015610c105783829060005260206000209060090201604051806101200160405290816000820154815260200160018201548152602001600282015481526020016003820180546122c0906137ab565b80601f01602080910402602001604051908101604052809291908181526020018280546122ec906137ab565b80156123395780601f1061230e57610100808354040283529160200191612339565b820191906000526020600020905b81548152906001019060200180831161231c57829003601f168201915b5050509183525050600482015460209091019060ff166006811115612360576123606131a2565b6006811115612371576123716131a2565b8152602001600582018054612385906137ab565b80601f01602080910402602001604051908101604052809291908181526020018280546123b1906137ab565b80156123fe5780601f106123d3576101008083540402835291602001916123fe565b820191906000526020600020905b8154815290600101906020018083116123e157829003601f168201915b50505050508152602001600682018054612417906137ab565b80601f0160208091040260200160405190810160405280929190818152602001828054612443906137ab565b80156124905780601f1061246557610100808354040283529160200191612490565b820191906000526020600020905b81548152906001019060200180831161247357829003601f168201915b505050918352505060078201546001600160a01b031660208201526008820180546040909201916124c0906137ab565b80601f01602080910402602001604051908101604052809291908181526020018280546124ec906137ab565b80156125395780601f1061250e57610100808354040283529160200191612539565b820191906000526020600020905b81548152906001019060200180831161251c57829003601f168201915b5050505050815250508152602001906001019061226e565b600082815260106020526040902060050154829061010090046001600160a01b031633146125c15760405162461bcd60e51b815260206004820152601860248201527f596f7520446f204e6f74204f776e205468697320526f6f6d000000000000000060448201526064016107b9565b816000036126085760405162461bcd60e51b815260206004820152601460248201527370726963652043616e6e6f74206265207a65726f60601b60448201526064016107b9565b600083815260106020908152604091829020600381018590559151848152429133917f2adffbd83a80d927a3a5c687edc852ca8941019a58261ffb685cc98972ba7c24910161139a565b6006818154811061266257600080fd5b906000526020600020906009020160009150905080600001549080600101549080600201549080600301805461103b906137ab565b61269f612d59565b6001600160a01b0381166127045760405162461bcd60e51b815260206004820152602660248201527f4f776e61626c653a206e6577206f776e657220697320746865207a65726f206160448201526564647265737360d01b60648201526084016107b9565b61270d81612db3565b50565b83600a8160405161272191906139a4565b9081526040519081900360200190205460ff16156127755760405162461bcd60e51b8152602060048201526011602482015270486f74656c204e616d652045786973747360781b60448201526064016107b9565b60008151116127c65760405162461bcd60e51b815260206004820152601d60248201527f506c6561736520737065636966792074686520686f74656c206e616d6500000060448201526064016107b9565b6002600154036127e85760405162461bcd60e51b81526004016107b9906137e5565b6002600155336127f757600080fd5b600354341461283e5760405162461bcd60e51b8152602060048201526013602482015272496e76616c6964204c697374696e672046656560681b60448201526064016107b9565b600084511161289b5760405162461bcd60e51b8152602060048201526024808201527f506c6561736520737065636966792074686520686f74656c20646573637269706044820152633a34b7b760e11b60648201526084016107b9565b60008351116128fd5760405162461bcd60e51b815260206004820152602860248201527f506c65617365207370656369667920746865206c6f636174696f6e206f6620746044820152671a19481a1bdd195b60c21b60648201526084016107b9565b61290b600480546001019055565b600061291660045490565b90506040518061012001604052808281526020016000815260200142815260200187815260200160006006811115612950576129506131a2565b8152602080820188905260408083018890523360608085019190915260809093018790526000858152600783528190208451815591840151600183015583015160028201559082015160038201906129a890826138e4565b50608082015160048201805460ff191660018360068111156129cc576129cc6131a2565b021790555060a082015160058201906129e590826138e4565b5060c082015160068201906129fa90826138e4565b5060e08201516007820180546001600160a01b0319166001600160a01b039092169190911790556101008201516008820190612a3690826138e4565b5050506000818152600760205260408120600680546001818101835591909352815460099093027ff652222313e28459528d920b65115c16c04f3efc82aaedc97be59f3f377c0d3f8101938455908201547ff652222313e28459528d920b65115c16c04f3efc82aaedc97be59f3f377c0d4082015560028201547ff652222313e28459528d920b65115c16c04f3efc82aaedc97be59f3f377c0d418201559091907ff652222313e28459528d920b65115c16c04f3efc82aaedc97be59f3f377c0d4201612b0660038401826139c0565b50600482810154908201805460ff9092169160ff19166001836006811115612b3057612b306131a2565b0217905550600581810190612b47908401826139c0565b50600681810190612b5a908401826139c0565b5060078281015490820180546001600160a01b0319166001600160a01b03909216919091179055600880820190612b93908401826139c0565b50505060008181526007602090815260408083203384526008909252909120815481556001808301549082015560028083015490820155600380820190612bdc908401826139c0565b50600482810154908201805460ff9092169160ff19166001836006811115612c0657612c066131a2565b0217905550600581810190612c1d908401826139c0565b50600681810190612c30908401826139c0565b5060078281015490820180546001600160a01b0319166001600160a01b03909216919091179055600880820190612c69908401826139c0565b5050600254612c7a9150600161304d565b60025560008181526009602052604090819020805460ff191660019081179091559051600a90612cab9089906139a4565b908152604051908190036020019020805491151560ff19909216919091179055612cdd6000546001600160a01b031690565b6001600160a01b03166108fc349081150290604051600060405180830381858888f19350505050158015612d15573d6000803e3d6000fd5b50604051428152819033907fc8103fc44f19a39b2be3834708c831e6292d5b110a99e06a1f9c1c5f24faf5dd9060200160405180910390a350506001805550505050565b6000546001600160a01b031633146116565760405162461bcd60e51b815260206004820181905260248201527f4f776e61626c653a2063616c6c6572206973206e6f7420746865206f776e657260448201526064016107b9565b600080546001600160a01b038381166001600160a01b0319831681178455604051919092169283917f8be0079c531659141344cd1fd0a4f28419497f9722a3daafe3b4186f6b6457e09190a35050565b6000612e0f8284613ab1565b90505b92915050565b600081815260116020526040902054819060ff161515600114612e4d5760405162461bcd60e51b81526004016107b990613869565b506000908152601060205260409020600501805460ff19166001179055565b6001600160a01b038116612e8257612e82613853565b33612e8c57600080fd5b82600003612edc5760405162461bcd60e51b815260206004820152601960248201527f426f6f6b696e672049442063616e6e6f74206265207a65726f0000000000000060448201526064016107b9565b6040805160a0810182528581526020810185815242928201928352606082018581526001600160a01b0385811660808501908152601380546001808201835560009290925286517f66de8ffda797e3de9c05e8fc57b3bf0ec28a930d40b0d285d93c06501cf6a09060059092029182015594517f66de8ffda797e3de9c05e8fc57b3bf0ec28a930d40b0d285d93c06501cf6a09186015595517f66de8ffda797e3de9c05e8fc57b3bf0ec28a930d40b0d285d93c06501cf6a09285015591517f66de8ffda797e3de9c05e8fc57b3bf0ec28a930d40b0d285d93c06501cf6a09384015590517f66de8ffda797e3de9c05e8fc57b3bf0ec28a930d40b0d285d93c06501cf6a09490920180546001600160a01b03191692909116919091179055601454909161300a919061304d565b6014556040514281528590349033907f414e8daa25ba8dde6e691876495db5da793781eed1794da14679b2af00301df69060200160405180910390a45050505050565b6000612e0f8284613ad0565b634e487b7160e01b600052604160045260246000fd5b600082601f83011261308057600080fd5b813567ffffffffffffffff8082111561309b5761309b613059565b604051601f8301601f19908116603f011681019082821181831017156130c3576130c3613059565b816040528381528660208588010111156130dc57600080fd5b836020870160208301376000602085830101528094505050505092915050565b60006020828403121561310e57600080fd5b813567ffffffffffffffff81111561312557600080fd5b6131318482850161306f565b949350505050565b60006020828403121561314b57600080fd5b5035919050565b60005b8381101561316d578181015183820152602001613155565b50506000910152565b6000815180845261318e816020860160208601613152565b601f01601f19169290920160200192915050565b634e487b7160e01b600052602160045260246000fd5b600781106131d657634e487b7160e01b600052602160045260246000fd5b9052565b60006101008a835289602084015288604084015280606084015261320081840189613176565b905082810360808401526132148188613176565b905082810360a08401526132288187613176565b905061323760c08401866131b8565b82810360e08401526132498185613176565b9b9a5050505050505050505050565b60208101612e1282846131b8565b60006020808301818452808551808352604092508286019150828160051b87010184880160005b8381101561333757888303603f1901855281518051845287810151888501528681015187850152606080820151908501526080808201519085015260a08082015115159085015260c0808201516001600160a01b03169085015260e080820151610120828701819052919061330483880182613176565b9250505061010080830151925085820381870152506133238183613176565b96890196945050509086019060010161328d565b509098975050505050505050565b60006101208b83528a602084015289604084015288606084015287608084015286151560a084015260018060a01b03861660c08401528060e084015261338d81840186613176565b90508281036101008401526133a28185613176565b9c9b505050505050505050505050565b6001600160a01b038116811461270d57600080fd5b6000602082840312156133d957600080fd5b81356133e4816133b2565b9392505050565b60006101208b83528a60208401528960408401528060608401526134118184018a613176565b905061342060808401896131b8565b82810360a08401526134328188613176565b905082810360c08401526134468187613176565b6001600160a01b03861660e085015283810361010085015290506133a28185613176565b6000806040838503121561347d57600080fd5b8235613488816133b2565b946020939093013593505050565b602081526000612e0f6020830184613176565b600080604083850312156134bc57600080fd5b823591506020830135600781106134d257600080fd5b809150509250929050565b600080604083850312156134f057600080fd5b50508035926020909101359150565b6000806040838503121561351257600080fd5b82359150602083013567ffffffffffffffff81111561353057600080fd5b61353c8582860161306f565b9150509250929050565b60008060008060008060c0878903121561355f57600080fd5b86359550602087013594506040870135935060608701359250608087013567ffffffffffffffff8082111561359357600080fd5b61359f8a838b0161306f565b935060a08901359150808211156135b557600080fd5b506135c289828a0161306f565b9150509295509295509295565b60006020808301818452808551808352604092508286019150828160051b87010184880160005b8381101561333757603f1989840301855281516101208151855288820151898601528782015188860152606080830151828288015261363783880182613176565b9250505060808083015161364d828801826131b8565b505060a080830151868303828801526136668382613176565b9250505060c080830151868303828801526136818382613176565b9250505060e08083015161369f828801826001600160a01b03169052565b505061010080830151925085820381870152506136bc8183613176565b9689019694505050908601906001016135f6565b600080600080608085870312156136e657600080fd5b843567ffffffffffffffff808211156136fe57600080fd5b61370a8883890161306f565b9550602087013591508082111561372057600080fd5b61372c8883890161306f565b9450604087013591508082111561374257600080fd5b61374e8883890161306f565b9350606087013591508082111561376457600080fd5b506137718782880161306f565b91505092959194509250565b602080825260149082015273121bdd195b08111bd95cc8139bdd08115e1a5cdd60621b604082015260600190565b600181811c908216806137bf57607f821691505b6020821081036137df57634e487b7160e01b600052602260045260246000fd5b50919050565b6020808252601f908201527f5265656e7472616e637947756172643a207265656e7472616e742063616c6c00604082015260600190565b6020808252601e908201527f596f7520446f204e6f74204f776e205468697320486f74656c204974656d0000604082015260600190565b634e487b7160e01b600052600160045260246000fd5b602080825260139082015272149bdbdb48111bd95cc8139bdd08115e1a5cdd606a1b604082015260600190565b601f821115611b9657600081815260208120601f850160051c810160208610156138bd5750805b601f850160051c820191505b818110156138dc578281556001016138c9565b505050505050565b815167ffffffffffffffff8111156138fe576138fe613059565b6139128161390c84546137ab565b84613896565b602080601f831160018114613947576000841561392f5750858301515b600019600386901b1c1916600185901b1785556138dc565b600085815260208120601f198616915b8281101561397657888601518255948401946001909101908401613957565b50858210156139945787850151600019600388901b60f8161c191681555b5050505050600190811b01905550565b600082516139b6818460208701613152565b9190910192915050565b8181036139cb575050565b6139d582546137ab565b67ffffffffffffffff8111156139ed576139ed613059565b6139fb8161390c84546137ab565b6000601f821160018114613a2f5760008315613a175750848201545b600019600385901b1c1916600184901b178455613a94565b600085815260209020601f19841690600086815260209020845b83811015613a695782860154825560019586019590910190602001613a49565b5085831015613a875781850154600019600388901b60f8161c191681555b50505060018360011b0184555b5050505050565b634e487b7160e01b600052601160045260246000fd5b6000816000190483118215151615613acb57613acb613a9b565b500290565b80820180821115612e1257612e12613a9b56fea26469706673582212200cd1e64186154883d734ffe54b8b363bf761251f72c5aa3218e08eefeba64cf064736f6c63430008100033",
  "immutableReferences": {},
  "source": "// SPDX-License-Identifier: MIT\npragma solidity ^0.8.0;\nimport '@openzeppelin/contracts/utils/math/SafeMath.sol';\nimport '@openzeppelin/contracts/security/ReentrancyGuard.sol';\nimport '@openzeppelin/contracts/utils/Counters.sol';\nimport './Room.sol';\n\ncontract Booking is Room{\n  using SafeMath for uint256;\n  using Counters for Counters.Counter;\n\n  struct BookingItem{\n    uint roomId;\n    uint bookingId;\n    uint bookingDate;\n    uint amountPaid;\n    address payable tenant;\n  }\n\n  BookingItem[] public bookings;\n\n  uint public totalBookings = 0;\n  Counters.Counter private _bookingIds;\n\n  event CheckoutSuccessfull(address indexed tenant, uint indexed roomId, uint indexed date);\n\n  constructor() {\n\n  }\n\n  function _registerBooking(uint _roomId, uint _bookingId,uint _amountPaid, address payable _tenant) internal{\n    assert(_tenant != address(0));\n    require(msg.sender != address(0));\n    require(_bookingId != 0,\"Booking ID cannot be zero\");\n    BookingItem memory newBooking = BookingItem(_roomId,_bookingId, block.timestamp,_amountPaid,_tenant);\n    bookings.push(newBooking);\n    totalBookings = totalBookings.add(1);\n    emit RoomBooked(block.timestamp, msg.sender,msg.value,_roomId);\n  }\n  \n  function bookRoom(uint _roomId,uint _numOfNights) public payable \n  nonReentrant \n  roomExists(_roomId) \n  isNotBooked(_roomId){\n    RoomItem storage room = roomItemId[_roomId];\n    uint totalPayableAmount = _numOfNights.mul(room.pricePerNight);\n    require(msg.sender != room.user,\"You cannot book your own room\");\n    require(msg.sender.balance >= totalPayableAmount,\"Insufficient Funds\");\n    require(_numOfNights != 0,\"Number of nights cannot be zero\");\n    require(msg.value == totalPayableAmount,\"Please pay the booking fee based on number of nights to be spent\");\n    _bookingIds.increment();\n    uint currentBookingId = _bookingIds.current();\n    room.user.transfer(msg.value);\n    _setBooked(_roomId);\n    _registerBooking(room.id, currentBookingId,msg.value, payable(msg.sender));\n    roomTenant[room.id] = msg.sender;\n  }\n\n  function checkOut(uint _roomId) public payable nonReentrant {\n    RoomItem storage room = roomItemId[_roomId];\n    require(room.isBooked == true,\"Room is not booked\");\n    require(msg.sender == roomTenant[room.id],\"You currently dont reside in this room\");\n    room.isBooked = false;\n    emit CheckoutSuccessfull(msg.sender,room.id,block.timestamp);\n  }\n\n}\n",
  "sourcePath": "D:\\mub\\selfImprovement\\Blockchain\\4_work\\BookingHotel(Frontend)\\src\\contracts\\Booking.sol",
  "compiler": {
    "name": "solc",
    "version": "0.8.16+commit.07a7930e.Emscripten.clang"
  },
  "schemaVersion": "3.4.7",
  "updatedAt": "2022-08-26T16:27:34.363Z",
  "networkType": "ethereum",
  "devdoc": {
    "kind": "dev",
    "methods": {
      "owner()": {
        "details": "Returns the address of the current owner."
      },
      "renounceOwnership()": {
        "details": "Leaves the contract without owner. It will not be possible to call `onlyOwner` functions anymore. Can only be called by the current owner. NOTE: Renouncing ownership will leave the contract without an owner, thereby removing any functionality that is only available to the owner."
      },
      "transferOwnership(address)": {
        "details": "Transfers ownership of the contract to a new account (`newOwner`). Can only be called by the current owner."
      }
    },
    "version": 1
  },
  "userdoc": {
    "kind": "user",
    "methods": {},
    "version": 1
  }
}