{
  "contractName": "Hotel",
  "abi": [
    {
      "inputs": [],
      "stateMutability": "nonpayable",
      "type": "constructor"
    },
    {
      "anonymous": false,
      "inputs": [
        {
          "indexed": true,
          "internalType": "address",
          "name": "causer",
          "type": "address"
        },
        {
          "indexed": false,
          "internalType": "uint256",
          "name": "date",
          "type": "uint256"
        },
        {
          "indexed": true,
          "internalType": "enum Hotel.HOTEL_CATEGORY",
          "name": "newCategory",
          "type": "uint8"
        }
      ],
      "name": "HotelCategoryChanged",
      "type": "event"
    },
    {
      "anonymous": false,
      "inputs": [
        {
          "indexed": false,
          "internalType": "uint256",
          "name": "date",
          "type": "uint256"
        },
        {
          "indexed": true,
          "internalType": "address",
          "name": "causer",
          "type": "address"
        },
        {
          "indexed": true,
          "internalType": "uint256",
          "name": "id",
          "type": "uint256"
        }
      ],
      "name": "HotelCreated",
      "type": "event"
    },
    {
      "anonymous": false,
      "inputs": [
        {
          "indexed": true,
          "internalType": "address",
          "name": "user",
          "type": "address"
        },
        {
          "indexed": true,
          "internalType": "uint256",
          "name": "date",
          "type": "uint256"
        },
        {
          "indexed": true,
          "internalType": "uint256",
          "name": "fee",
          "type": "uint256"
        }
      ],
      "name": "HotelListingFeeChanged",
      "type": "event"
    },
    {
      "anonymous": false,
      "inputs": [
        {
          "indexed": true,
          "internalType": "address",
          "name": "causer",
          "type": "address"
        },
        {
          "indexed": true,
          "internalType": "address",
          "name": "newOwner",
          "type": "address"
        },
        {
          "indexed": false,
          "internalType": "uint256",
          "name": "date",
          "type": "uint256"
        }
      ],
      "name": "HotelOwnerChanged",
      "type": "event"
    },
    {
      "anonymous": false,
      "inputs": [
        {
          "indexed": true,
          "internalType": "address",
          "name": "previousOwner",
          "type": "address"
        },
        {
          "indexed": true,
          "internalType": "address",
          "name": "newOwner",
          "type": "address"
        }
      ],
      "name": "OwnershipTransferred",
      "type": "event"
    },
    {
      "inputs": [
        {
          "internalType": "uint256",
          "name": "",
          "type": "uint256"
        }
      ],
      "name": "existingHotelItemId",
      "outputs": [
        {
          "internalType": "bool",
          "name": "",
          "type": "bool"
        }
      ],
      "stateMutability": "view",
      "type": "function"
    },
    {
      "inputs": [
        {
          "internalType": "string",
          "name": "",
          "type": "string"
        }
      ],
      "name": "existingHotelItemName",
      "outputs": [
        {
          "internalType": "bool",
          "name": "",
          "type": "bool"
        }
      ],
      "stateMutability": "view",
      "type": "function"
    },
    {
      "inputs": [],
      "name": "hotelCategory",
      "outputs": [
        {
          "internalType": "enum Hotel.HOTEL_CATEGORY",
          "name": "",
          "type": "uint8"
        }
      ],
      "stateMutability": "view",
      "type": "function"
    },
    {
      "inputs": [
        {
          "internalType": "uint256",
          "name": "",
          "type": "uint256"
        }
      ],
      "name": "hotelItemId",
      "outputs": [
        {
          "internalType": "uint256",
          "name": "id",
          "type": "uint256"
        },
        {
          "internalType": "uint256",
          "name": "totalRooms",
          "type": "uint256"
        },
        {
          "internalType": "uint256",
          "name": "creationDate",
          "type": "uint256"
        },
        {
          "internalType": "string",
          "name": "name",
          "type": "string"
        },
        {
          "internalType": "enum Hotel.HOTEL_CATEGORY",
          "name": "hotelCategory",
          "type": "uint8"
        },
        {
          "internalType": "string",
          "name": "description",
          "type": "string"
        },
        {
          "internalType": "string",
          "name": "locationAddress",
          "type": "string"
        },
        {
          "internalType": "address payable",
          "name": "user",
          "type": "address"
        },
        {
          "internalType": "string",
          "name": "imageHash",
          "type": "string"
        }
      ],
      "stateMutability": "view",
      "type": "function"
    },
    {
      "inputs": [
        {
          "internalType": "uint256",
          "name": "",
          "type": "uint256"
        }
      ],
      "name": "hotelItems",
      "outputs": [
        {
          "internalType": "uint256",
          "name": "id",
          "type": "uint256"
        },
        {
          "internalType": "uint256",
          "name": "totalRooms",
          "type": "uint256"
        },
        {
          "internalType": "uint256",
          "name": "creationDate",
          "type": "uint256"
        },
        {
          "internalType": "string",
          "name": "name",
          "type": "string"
        },
        {
          "internalType": "enum Hotel.HOTEL_CATEGORY",
          "name": "hotelCategory",
          "type": "uint8"
        },
        {
          "internalType": "string",
          "name": "description",
          "type": "string"
        },
        {
          "internalType": "string",
          "name": "locationAddress",
          "type": "string"
        },
        {
          "internalType": "address payable",
          "name": "user",
          "type": "address"
        },
        {
          "internalType": "string",
          "name": "imageHash",
          "type": "string"
        }
      ],
      "stateMutability": "view",
      "type": "function"
    },
    {
      "inputs": [],
      "name": "hotelListingFee",
      "outputs": [
        {
          "internalType": "uint256",
          "name": "",
          "type": "uint256"
        }
      ],
      "stateMutability": "view",
      "type": "function"
    },
    {
      "inputs": [
        {
          "internalType": "address",
          "name": "",
          "type": "address"
        }
      ],
      "name": "hotelOwner",
      "outputs": [
        {
          "internalType": "uint256",
          "name": "id",
          "type": "uint256"
        },
        {
          "internalType": "uint256",
          "name": "totalRooms",
          "type": "uint256"
        },
        {
          "internalType": "uint256",
          "name": "creationDate",
          "type": "uint256"
        },
        {
          "internalType": "string",
          "name": "name",
          "type": "string"
        },
        {
          "internalType": "enum Hotel.HOTEL_CATEGORY",
          "name": "hotelCategory",
          "type": "uint8"
        },
        {
          "internalType": "string",
          "name": "description",
          "type": "string"
        },
        {
          "internalType": "string",
          "name": "locationAddress",
          "type": "string"
        },
        {
          "internalType": "address payable",
          "name": "user",
          "type": "address"
        },
        {
          "internalType": "string",
          "name": "imageHash",
          "type": "string"
        }
      ],
      "stateMutability": "view",
      "type": "function"
    },
    {
      "inputs": [],
      "name": "owner",
      "outputs": [
        {
          "internalType": "address",
          "name": "",
          "type": "address"
        }
      ],
      "stateMutability": "view",
      "type": "function"
    },
    {
      "inputs": [],
      "name": "renounceOwnership",
      "outputs": [],
      "stateMutability": "nonpayable",
      "type": "function"
    },
    {
      "inputs": [],
      "name": "totalHotels",
      "outputs": [
        {
          "internalType": "uint256",
          "name": "",
          "type": "uint256"
        }
      ],
      "stateMutability": "view",
      "type": "function"
    },
    {
      "inputs": [
        {
          "internalType": "address",
          "name": "newOwner",
          "type": "address"
        }
      ],
      "name": "transferOwnership",
      "outputs": [],
      "stateMutability": "nonpayable",
      "type": "function"
    },
    {
      "inputs": [
        {
          "internalType": "uint256",
          "name": "_fee",
          "type": "uint256"
        }
      ],
      "name": "setListingFee",
      "outputs": [],
      "stateMutability": "nonpayable",
      "type": "function"
    },
    {
      "inputs": [
        {
          "internalType": "uint256",
          "name": "hotelId",
          "type": "uint256"
        },
        {
          "internalType": "string",
          "name": "imageHash",
          "type": "string"
        }
      ],
      "name": "setImageHash",
      "outputs": [],
      "stateMutability": "nonpayable",
      "type": "function"
    },
    {
      "inputs": [
        {
          "internalType": "uint256",
          "name": "hotelId",
          "type": "uint256"
        }
      ],
      "name": "getImageHash",
      "outputs": [
        {
          "internalType": "string",
          "name": "_imageHash",
          "type": "string"
        }
      ],
      "stateMutability": "view",
      "type": "function"
    },
    {
      "inputs": [
        {
          "internalType": "string",
          "name": "_name",
          "type": "string"
        },
        {
          "internalType": "string",
          "name": "_description",
          "type": "string"
        },
        {
          "internalType": "string",
          "name": "_location",
          "type": "string"
        },
        {
          "internalType": "string",
          "name": "_imageHash",
          "type": "string"
        }
      ],
      "name": "addHotel",
      "outputs": [],
      "stateMutability": "payable",
      "type": "function"
    },
    {
      "inputs": [],
      "name": "listAllHotels",
      "outputs": [
        {
          "components": [
            {
              "internalType": "uint256",
              "name": "id",
              "type": "uint256"
            },
            {
              "internalType": "uint256",
              "name": "totalRooms",
              "type": "uint256"
            },
            {
              "internalType": "uint256",
              "name": "creationDate",
              "type": "uint256"
            },
            {
              "internalType": "string",
              "name": "name",
              "type": "string"
            },
            {
              "internalType": "enum Hotel.HOTEL_CATEGORY",
              "name": "hotelCategory",
              "type": "uint8"
            },
            {
              "internalType": "string",
              "name": "description",
              "type": "string"
            },
            {
              "internalType": "string",
              "name": "locationAddress",
              "type": "string"
            },
            {
              "internalType": "address payable",
              "name": "user",
              "type": "address"
            },
            {
              "internalType": "string",
              "name": "imageHash",
              "type": "string"
            }
          ],
          "internalType": "struct Hotel.HotelItem[]",
          "name": "",
          "type": "tuple[]"
        }
      ],
      "stateMutability": "view",
      "type": "function"
    },
    {
      "inputs": [
        {
          "internalType": "uint256",
          "name": "_hotelId",
          "type": "uint256"
        }
      ],
      "name": "getHotelBioData",
      "outputs": [
        {
          "internalType": "uint256",
          "name": "_id",
          "type": "uint256"
        },
        {
          "internalType": "uint256",
          "name": "_totalRooms",
          "type": "uint256"
        },
        {
          "internalType": "uint256",
          "name": "_date",
          "type": "uint256"
        },
        {
          "internalType": "string",
          "name": "_name",
          "type": "string"
        },
        {
          "internalType": "string",
          "name": "_description",
          "type": "string"
        },
        {
          "internalType": "string",
          "name": "_location",
          "type": "string"
        },
        {
          "internalType": "enum Hotel.HOTEL_CATEGORY",
          "name": "_category",
          "type": "uint8"
        },
        {
          "internalType": "string",
          "name": "_photo",
          "type": "string"
        }
      ],
      "stateMutability": "view",
      "type": "function"
    },
    {
      "inputs": [
        {
          "internalType": "uint256",
          "name": "_hotelId",
          "type": "uint256"
        },
        {
          "internalType": "enum Hotel.HOTEL_CATEGORY",
          "name": "_category",
          "type": "uint8"
        }
      ],
      "name": "changeHotelCategory",
      "outputs": [],
      "stateMutability": "nonpayable",
      "type": "function"
    },
    {
      "inputs": [
        {
          "internalType": "uint256",
          "name": "_hotelId",
          "type": "uint256"
        }
      ],
      "name": "getName",
      "outputs": [
        {
          "internalType": "string",
          "name": "",
          "type": "string"
        }
      ],
      "stateMutability": "view",
      "type": "function"
    },
    {
      "inputs": [
        {
          "internalType": "uint256",
          "name": "_hotelId",
          "type": "uint256"
        }
      ],
      "name": "getId",
      "outputs": [
        {
          "internalType": "uint256",
          "name": "",
          "type": "uint256"
        }
      ],
      "stateMutability": "view",
      "type": "function"
    },
    {
      "inputs": [
        {
          "internalType": "address payable",
          "name": "_newOwner",
          "type": "address"
        },
        {
          "internalType": "uint256",
          "name": "_hotelId",
          "type": "uint256"
        }
      ],
      "name": "changeHotelOwner",
      "outputs": [],
      "stateMutability": "nonpayable",
      "type": "function"
    }
  ],
  "bytecode": "0x60806040526000600255660187152d40e00060035534801561002057600080fd5b5061002a33610033565b60018055610083565b600080546001600160a01b038381166001600160a01b0319831681178455604051919092169283917f8be0079c531659141344cd1fd0a4f28419497f9722a3daafe3b4186f6b6457e09190a35050565b612318806100926000396000f3fe60806040526004361061012a5760003560e01c8063715018a6116100ab5780639e3edce91161006f5780639e3edce914610393578063bbc02ce2146103b3578063c210c532146103c9578063c89e4963146103eb578063f2fde38b1461040b578063fd5fddd81461042b57600080fd5b8063715018a6146102f057806374dbda05146103055780638da5cb5b1461033557806391aa84891461035d5780639524a38e1461037357600080fd5b80634dce717e116100f25780634dce717e1461020a578063545a153a1461025557806362834462146102835780636b8ff574146102b057806370f3bfd8146102d057600080fd5b80630af272f71461012f5780630fa0200d1461016c578063131dbd09146101935780633716236e146101b5578063387329f9146101ea575b600080fd5b34801561013b57600080fd5b5061014f61014a366004611af9565b61043e565b604051610163989796959493929190611b9a565b60405180910390f35b34801561017857600080fd5b506005546101869060ff1681565b6040516101639190611c18565b34801561019f57600080fd5b506101b36101ae366004611af9565b610705565b005b3480156101c157600080fd5b506101d56101d0366004611c3b565b610794565b60405161016399989796959493929190611c5f565b3480156101f657600080fd5b506101b3610205366004611cee565b610a15565b34801561021657600080fd5b50610245610225366004611dbd565b8051602081830181018051600a8252928201919093012091525460ff1681565b6040519015158152602001610163565b34801561026157600080fd5b50610275610270366004611af9565b610be3565b604051908152602001610163565b34801561028f57600080fd5b506102a361029e366004611af9565b610c30565b6040516101639190611dfa565b3480156102bc57600080fd5b506102a36102cb366004611af9565b610d07565b3480156102dc57600080fd5b506101b36102eb366004611e0d565b610de1565b3480156102fc57600080fd5b506101b3610f5c565b34801561031157600080fd5b50610245610320366004611af9565b60096020526000908152604090205460ff1681565b34801561034157600080fd5b506000546040516001600160a01b039091168152602001610163565b34801561036957600080fd5b5061027560035481565b34801561037f57600080fd5b506101d561038e366004611af9565b610f70565b34801561039f57600080fd5b506101b36103ae366004611e41565b610fa0565b3480156103bf57600080fd5b5061027560025481565b3480156103d557600080fd5b506103de610ff3565b6040516101639190611e88565b3480156103f757600080fd5b506101d5610406366004611af9565b611303565b34801561041757600080fd5b506101b3610426366004611c3b565b611348565b6101b3610439366004611f97565b6113c1565b600081815260096020526040812054819081906060908190819084908290899060ff16151560011461048b5760405162461bcd60e51b815260040161048290612044565b60405180910390fd5b60008a8152600760205260409020805460018201546002830154600384018054939d50919b509950906104bd90612072565b80601f01602080910402602001604051908101604052809291908181526020018280546104e990612072565b80156105365780601f1061050b57610100808354040283529160200191610536565b820191906000526020600020905b81548152906001019060200180831161051957829003601f168201915b5050505050965080600501805461054c90612072565b80601f016020809104026020016040519081016040528092919081815260200182805461057890612072565b80156105c55780601f1061059a576101008083540402835291602001916105c5565b820191906000526020600020905b8154815290600101906020018083116105a857829003601f168201915b505050505095508060060180546105db90612072565b80601f016020809104026020016040519081016040528092919081815260200182805461060790612072565b80156106545780601f1061062957610100808354040283529160200191610654565b820191906000526020600020905b81548152906001019060200180831161063757829003601f168201915b50505050600483015460088401805493985060ff9091169650916106789150612072565b80601f01602080910402602001604051908101604052809291908181526020018280546106a490612072565b80156106f15780601f106106c6576101008083540402835291602001916106f1565b820191906000526020600020905b8154815290600101906020018083116106d457829003601f168201915b505050505092505050919395975091939597565b61070d611a3a565b8060000361075d5760405162461bcd60e51b815260206004820152601a60248201527f4c697374696e67204665652043616e6e6f74206265207a65726f0000000000006044820152606401610482565b60038190556040518190429033907fd86cac97cd3caa153b72db918dc0feb1ed9683dfd389c345d07f7d00390b63b790600090a450565b6008602052600090815260409020805460018201546002830154600384018054939492939192916107c490612072565b80601f01602080910402602001604051908101604052809291908181526020018280546107f090612072565b801561083d5780601f106108125761010080835404028352916020019161083d565b820191906000526020600020905b81548152906001019060200180831161082057829003601f168201915b5050506004840154600585018054949560ff90921694919350915061086190612072565b80601f016020809104026020016040519081016040528092919081815260200182805461088d90612072565b80156108da5780601f106108af576101008083540402835291602001916108da565b820191906000526020600020905b8154815290600101906020018083116108bd57829003601f168201915b5050505050908060060180546108ef90612072565b80601f016020809104026020016040519081016040528092919081815260200182805461091b90612072565b80156109685780601f1061093d57610100808354040283529160200191610968565b820191906000526020600020905b81548152906001019060200180831161094b57829003601f168201915b505050600784015460088501805494956001600160a01b0390921694919350915061099290612072565b80601f01602080910402602001604051908101604052809291908181526020018280546109be90612072565b8015610a0b5780601f106109e057610100808354040283529160200191610a0b565b820191906000526020600020905b8154815290600101906020018083116109ee57829003601f168201915b5050505050905089565b600081815260096020526040902054819060ff161515600114610a4a5760405162461bcd60e51b815260040161048290612044565b6000828152600760208190526040909120015482906001600160a01b03163314610ab65760405162461bcd60e51b815260206004820152601e60248201527f596f7520446f204e6f74204f776e205468697320486f74656c204974656d00006044820152606401610482565b6001600160a01b0384163303610b195760405162461bcd60e51b815260206004820152602260248201527f596f75206172652074686520726967687466756c206f776e657220616c726561604482015261647960f01b6064820152608401610482565b6001600160a01b038416610b7a5760405162461bcd60e51b815260206004820152602260248201527f506c65617365207370656369667920612076616c696420455448206164647265604482015261737360f01b6064820152608401610482565b60008381526007602081815260409283902090910180546001600160a01b0319166001600160a01b038816908117909155915142815233917fa4384cd8553d716f837cc7d68ed60529f9672b59cf96f1ce8bef3334183db34a910160405180910390a350505050565b600081815260096020526040812054829060ff161515600114610c185760405162461bcd60e51b815260040161048290612044565b60008381526007602052604090205491505b50919050565b60008181526009602052604090205460609060ff161515600114610c665760405162461bcd60e51b815260040161048290612044565b60008281526007602052604090206008018054610c8290612072565b80601f0160208091040260200160405190810160405280929190818152602001828054610cae90612072565b8015610cfb5780601f10610cd057610100808354040283529160200191610cfb565b820191906000526020600020905b815481529060010190602001808311610cde57829003601f168201915b50505050509050919050565b600081815260096020526040902054606090829060ff161515600114610d3f5760405162461bcd60e51b815260040161048290612044565b60008381526007602052604090206003018054610d5b90612072565b80601f0160208091040260200160405190810160405280929190818152602001828054610d8790612072565b8015610dd45780601f10610da957610100808354040283529160200191610dd4565b820191906000526020600020905b815481529060010190602001808311610db757829003601f168201915b5050505050915050919050565b600082815260096020526040902054829060ff161515600114610e165760405162461bcd60e51b815260040161048290612044565b6000838152600760208190526040909120015483906001600160a01b03163314610e825760405162461bcd60e51b815260206004820152601e60248201527f596f7520446f204e6f74204f776e205468697320486f74656c204974656d00006044820152606401610482565b600084815260076020526040812090846006811115610ea357610ea3611b62565b03610eb057610eb06120a6565b600481015460ff166006811115610ec957610ec9611b62565b846006811115610edb57610edb611b62565b03610ee857610ee86120a6565b60048101805485919060ff19166001836006811115610f0957610f09611b62565b0217905550836006811115610f2057610f20611b62565b60405142815233907ff5b844f9650efd8a638976417da0e54ababae9d5ae6ec7dbc97124f00d5a5c5e9060200160405180910390a35050505050565b610f64611a3a565b610f6e6000611a94565b565b6007602052600090815260409020805460018201546002830154600384018054939492939192916107c490612072565b60008281526009602052604090205460ff161515600114610fd35760405162461bcd60e51b815260040161048290612044565b6000828152600760205260409020600801610fee828261210a565b505050565b60606006805480602002602001604051908101604052809291908181526020016000905b828210156112fa57838290600052602060002090600902016040518061012001604052908160008201548152602001600182015481526020016002820154815260200160038201805461106990612072565b80601f016020809104026020016040519081016040528092919081815260200182805461109590612072565b80156110e25780601f106110b7576101008083540402835291602001916110e2565b820191906000526020600020905b8154815290600101906020018083116110c557829003601f168201915b5050509183525050600482015460209091019060ff16600681111561110957611109611b62565b600681111561111a5761111a611b62565b815260200160058201805461112e90612072565b80601f016020809104026020016040519081016040528092919081815260200182805461115a90612072565b80156111a75780601f1061117c576101008083540402835291602001916111a7565b820191906000526020600020905b81548152906001019060200180831161118a57829003601f168201915b505050505081526020016006820180546111c090612072565b80601f01602080910402602001604051908101604052809291908181526020018280546111ec90612072565b80156112395780601f1061120e57610100808354040283529160200191611239565b820191906000526020600020905b81548152906001019060200180831161121c57829003601f168201915b505050918352505060078201546001600160a01b0316602082015260088201805460409092019161126990612072565b80601f016020809104026020016040519081016040528092919081815260200182805461129590612072565b80156112e25780601f106112b7576101008083540402835291602001916112e2565b820191906000526020600020905b8154815290600101906020018083116112c557829003601f168201915b50505050508152505081526020019060010190611017565b50505050905090565b6006818154811061131357600080fd5b90600052602060002090600902016000915090508060000154908060010154908060020154908060030180546107c490612072565b611350611a3a565b6001600160a01b0381166113b55760405162461bcd60e51b815260206004820152602660248201527f4f776e61626c653a206e6577206f776e657220697320746865207a65726f206160448201526564647265737360d01b6064820152608401610482565b6113be81611a94565b50565b83600a816040516113d291906121ca565b9081526040519081900360200190205460ff16156114265760405162461bcd60e51b8152602060048201526011602482015270486f74656c204e616d652045786973747360781b6044820152606401610482565b60008151116114775760405162461bcd60e51b815260206004820152601d60248201527f506c6561736520737065636966792074686520686f74656c206e616d650000006044820152606401610482565b6002600154036114c95760405162461bcd60e51b815260206004820152601f60248201527f5265656e7472616e637947756172643a207265656e7472616e742063616c6c006044820152606401610482565b6002600155336114d857600080fd5b600354341461151f5760405162461bcd60e51b8152602060048201526013602482015272496e76616c6964204c697374696e672046656560681b6044820152606401610482565b600084511161157c5760405162461bcd60e51b8152602060048201526024808201527f506c6561736520737065636966792074686520686f74656c20646573637269706044820152633a34b7b760e11b6064820152608401610482565b60008351116115de5760405162461bcd60e51b815260206004820152602860248201527f506c65617365207370656369667920746865206c6f636174696f6e206f6620746044820152671a19481a1bdd195b60c21b6064820152608401610482565b6115ec600480546001019055565b60006115f760045490565b9050604051806101200160405280828152602001600081526020014281526020018781526020016000600681111561163157611631611b62565b815260208082018890526040808301889052336060808501919091526080909301879052600085815260078352819020845181559184015160018301558301516002820155908201516003820190611689908261210a565b50608082015160048201805460ff191660018360068111156116ad576116ad611b62565b021790555060a082015160058201906116c6908261210a565b5060c082015160068201906116db908261210a565b5060e08201516007820180546001600160a01b0319166001600160a01b039092169190911790556101008201516008820190611717908261210a565b5050506000818152600760205260408120600680546001818101835591909352815460099093027ff652222313e28459528d920b65115c16c04f3efc82aaedc97be59f3f377c0d3f8101938455908201547ff652222313e28459528d920b65115c16c04f3efc82aaedc97be59f3f377c0d4082015560028201547ff652222313e28459528d920b65115c16c04f3efc82aaedc97be59f3f377c0d418201559091907ff652222313e28459528d920b65115c16c04f3efc82aaedc97be59f3f377c0d42016117e760038401826121e6565b50600482810154908201805460ff9092169160ff1916600183600681111561181157611811611b62565b0217905550600581810190611828908401826121e6565b5060068181019061183b908401826121e6565b5060078281015490820180546001600160a01b0319166001600160a01b03909216919091179055600880820190611874908401826121e6565b505050600081815260076020908152604080832033845260089092529091208154815560018083015490820155600280830154908201556003808201906118bd908401826121e6565b50600482810154908201805460ff9092169160ff191660018360068111156118e7576118e7611b62565b02179055506005818101906118fe908401826121e6565b50600681810190611911908401826121e6565b5060078281015490820180546001600160a01b0319166001600160a01b0390921691909117905560088082019061194a908401826121e6565b505060025461195b91506001611ae4565b60025560008181526009602052604090819020805460ff191660019081179091559051600a9061198c9089906121ca565b908152604051908190036020019020805491151560ff199092169190911790556119be6000546001600160a01b031690565b6001600160a01b03166108fc349081150290604051600060405180830381858888f193505050501580156119f6573d6000803e3d6000fd5b50604051428152819033907fc8103fc44f19a39b2be3834708c831e6292d5b110a99e06a1f9c1c5f24faf5dd9060200160405180910390a350506001805550505050565b6000546001600160a01b03163314610f6e5760405162461bcd60e51b815260206004820181905260248201527f4f776e61626c653a2063616c6c6572206973206e6f7420746865206f776e65726044820152606401610482565b600080546001600160a01b038381166001600160a01b0319831681178455604051919092169283917f8be0079c531659141344cd1fd0a4f28419497f9722a3daafe3b4186f6b6457e09190a35050565b6000611af082846122c1565b90505b92915050565b600060208284031215611b0b57600080fd5b5035919050565b60005b83811015611b2d578181015183820152602001611b15565b50506000910152565b60008151808452611b4e816020860160208601611b12565b601f01601f19169290920160200192915050565b634e487b7160e01b600052602160045260246000fd5b60078110611b9657634e487b7160e01b600052602160045260246000fd5b9052565b60006101008a8352896020840152886040840152806060840152611bc081840189611b36565b90508281036080840152611bd48188611b36565b905082810360a0840152611be88187611b36565b9050611bf760c0840186611b78565b82810360e0840152611c098185611b36565b9b9a5050505050505050505050565b60208101611af38284611b78565b6001600160a01b03811681146113be57600080fd5b600060208284031215611c4d57600080fd5b8135611c5881611c26565b9392505050565b60006101208b83528a6020840152896040840152806060840152611c858184018a611b36565b9050611c946080840189611b78565b82810360a0840152611ca68188611b36565b905082810360c0840152611cba8187611b36565b6001600160a01b03861660e08501528381036101008501529050611cde8185611b36565b9c9b505050505050505050505050565b60008060408385031215611d0157600080fd5b8235611d0c81611c26565b946020939093013593505050565b634e487b7160e01b600052604160045260246000fd5b600082601f830112611d4157600080fd5b813567ffffffffffffffff80821115611d5c57611d5c611d1a565b604051601f8301601f19908116603f01168101908282118183101715611d8457611d84611d1a565b81604052838152866020858801011115611d9d57600080fd5b836020870160208301376000602085830101528094505050505092915050565b600060208284031215611dcf57600080fd5b813567ffffffffffffffff811115611de657600080fd5b611df284828501611d30565b949350505050565b602081526000611af06020830184611b36565b60008060408385031215611e2057600080fd5b82359150602083013560078110611e3657600080fd5b809150509250929050565b60008060408385031215611e5457600080fd5b82359150602083013567ffffffffffffffff811115611e7257600080fd5b611e7e85828601611d30565b9150509250929050565b60006020808301818452808551808352604092508286019150828160051b87010184880160005b83811015611f8957603f19898403018552815161012081518552888201518986015287820151888601526060808301518282880152611ef083880182611b36565b92505050608080830151611f0682880182611b78565b505060a08083015186830382880152611f1f8382611b36565b9250505060c08083015186830382880152611f3a8382611b36565b9250505060e080830151611f58828801826001600160a01b03169052565b50506101008083015192508582038187015250611f758183611b36565b968901969450505090860190600101611eaf565b509098975050505050505050565b60008060008060808587031215611fad57600080fd5b843567ffffffffffffffff80821115611fc557600080fd5b611fd188838901611d30565b95506020870135915080821115611fe757600080fd5b611ff388838901611d30565b9450604087013591508082111561200957600080fd5b61201588838901611d30565b9350606087013591508082111561202b57600080fd5b5061203887828801611d30565b91505092959194509250565b602080825260149082015273121bdd195b08111bd95cc8139bdd08115e1a5cdd60621b604082015260600190565b600181811c9082168061208657607f821691505b602082108103610c2a57634e487b7160e01b600052602260045260246000fd5b634e487b7160e01b600052600160045260246000fd5b601f821115610fee57600081815260208120601f850160051c810160208610156120e35750805b601f850160051c820191505b81811015612102578281556001016120ef565b505050505050565b815167ffffffffffffffff81111561212457612124611d1a565b612138816121328454612072565b846120bc565b602080601f83116001811461216d57600084156121555750858301515b600019600386901b1c1916600185901b178555612102565b600085815260208120601f198616915b8281101561219c5788860151825594840194600190910190840161217d565b50858210156121ba5787850151600019600388901b60f8161c191681555b5050505050600190811b01905550565b600082516121dc818460208701611b12565b9190910192915050565b8181036121f1575050565b6121fb8254612072565b67ffffffffffffffff81111561221357612213611d1a565b612221816121328454612072565b6000601f821160018114612255576000831561223d5750848201545b600019600385901b1c1916600184901b1784556122ba565b600085815260209020601f19841690600086815260209020845b8381101561228f578286015482556001958601959091019060200161226f565b50858310156122ad5781850154600019600388901b60f8161c191681555b50505060018360011b0184555b5050505050565b80820180821115611af357634e487b7160e01b600052601160045260246000fdfea26469706673582212208db2005d4ce717a5c653a2451cbaea32e2026736d13b50bd3499eacbcfddf7fe64736f6c63430008100033",
  "immutableReferences": {},
  "source": "// SPDX-License-Identifier: MIT\npragma solidity ^0.8.0;\nimport '@openzeppelin/contracts/utils/math/SafeMath.sol';\nimport '@openzeppelin/contracts/security/ReentrancyGuard.sol';\nimport '@openzeppelin/contracts/access/Ownable.sol';\nimport '@openzeppelin/contracts/utils/Counters.sol';\nimport './HotelBookingInterface.sol';\n\n  /**\n   * @title Hotel Booking \n   * @dev A simple Smart Contract for hotel management\n   * @author Dickens Odera dickensodera9@gmail.com\n  **/\n\ncontract Hotel is Ownable, HotelBookingInterface, ReentrancyGuard {\n  using SafeMath for uint256;\n  using Counters for Counters.Counter;\n\n  uint public totalHotels = 0; //the total number of the hotels\n  uint public hotelListingFee = 0.00043 ether; //200 Ksh at the time of writing this smart contract\n  Counters.Counter private _hotelIds; //hotel id to be inrecemented when a new hotel is created\n\n  enum HOTEL_CATEGORY {CHAIN_HOTEL, MOTEL, RESORT, INN, ALL_SUITS, BOUTIGUE, EXTENDED_STAY} // hotel types\n  HOTEL_CATEGORY public hotelCategory;\n  HOTEL_CATEGORY constant DEFAULT_HOTEL_TYPE = HOTEL_CATEGORY.CHAIN_HOTEL; //default hotel type as it is the most common around the world\n\n  //Group hotel data together in a Struct\n  struct HotelItem{\n    uint id;\n    uint totalRooms;\n    uint creationDate;\n    string name;\n    HOTEL_CATEGORY hotelCategory;\n    string description;\n    string locationAddress;\n    address payable user;\n    string imageHash;\n  }\n\n  HotelItem[] public hotelItems; //hotels array of the Hotel struct above\n  mapping(uint => HotelItem) public hotelItemId;\n  mapping(address => HotelItem) public hotelOwner; //the owner of this hotel\n  mapping(uint => bool) public existingHotelItemId;\n  mapping(string => bool) public existingHotelItemName;\n\n  //events\n  event HotelCreated(uint date, address indexed causer, uint indexed id);\n  event HotelCategoryChanged(address indexed causer, uint date, HOTEL_CATEGORY indexed newCategory);\n  event HotelOwnerChanged(address indexed causer, address indexed newOwner, uint date);\n  event HotelListingFeeChanged(address indexed user, uint indexed date,uint indexed fee);\n\n  constructor() {\n\n  }\n\n  //ensure that the hotel exists in the blockchain before performing related transactions\n  modifier hotelExists(uint _hotelId){\n      require(existingHotelItemId[_hotelId] == true,\"Hotel Does Not Exist\");\n      _;\n  }\n\n  //to avoid duplicate hotel names in the contract\n  modifier hotelNameExists(string memory _name){\n     require(existingHotelItemName[_name] == false,\"Hotel Name Exists\");\n     require(bytes(_name).length > 0,\"Please specify the hotel name\");\n     _;\n  }\n\n  //ensure the transactionsender owns this hotel before the transaction\n  modifier ownsHotel(uint _hotelId){\n      require(msg.sender == hotelItemId[_hotelId].user,\"You Do Not Own This Hotel Item\");\n      _;\n  }\n\n  //check that this user address has hotel before adding a room\n  modifier hasListedHotel(uint _hotelId){\n      bool isListed = false;\n        if(msg.sender == hotelItemId[_hotelId].user){\n            isListed = true;\n        }\n      require(isListed == true,\"Please List A Hotel Before Adding A Room\");\n      _;\n  }\n\n  function setListingFee(uint _fee) public onlyOwner{\n    require(_fee != 0,\"Listing Fee Cannot be zero\");\n    hotelListingFee = _fee;\n    emit HotelListingFeeChanged(msg.sender,block.timestamp, _fee);\n  }\n\n  function setImageHash(uint hotelId, string memory imageHash) public{\n    require(existingHotelItemId[hotelId] == true,\"Hotel Does Not Exist\");\n    hotelItemId[hotelId].imageHash = imageHash;\n  }\n\n  function getImageHash(uint hotelId) public view returns(string memory _imageHash){\n    require(existingHotelItemId[hotelId] == true,\"Hotel Does Not Exist\");\n    return hotelItemId[hotelId].imageHash;\n  }\n\n  function addHotel(string memory _name,string memory _description, string memory _location, string memory _imageHash) public hotelNameExists(_name) nonReentrant payable{\n    require(msg.sender != address(0));\n    require(msg.value == hotelListingFee,\"Invalid Listing Fee\");\n    require(bytes(_description).length > 0,\"Please specify the hotel description\");\n    require(bytes(_location).length > 0,\"Please specify the location of the hotel\");\n    _hotelIds.increment();\n    uint currentHotelId = _hotelIds.current();\n    hotelItemId[currentHotelId] = HotelItem(currentHotelId, 0, block.timestamp, _name, DEFAULT_HOTEL_TYPE,_description, _location, payable(msg.sender), _imageHash);\n    hotelItems.push(hotelItemId[currentHotelId]);\n    hotelOwner[msg.sender] = hotelItemId[currentHotelId];\n    totalHotels = totalHotels.add(1);\n    existingHotelItemId[currentHotelId] = true;\n    existingHotelItemName[_name] = true;\n    payable(owner()).transfer(msg.value);\n    emit HotelCreated(block.timestamp, msg.sender, currentHotelId);\n  }\n\n  function listAllHotels() public view returns(HotelItem[] memory){\n      return hotelItems;\n  }\n\n  function getHotelBioData(uint _hotelId) public view hotelExists(_hotelId) returns(\n      uint _id,\n      uint _totalRooms,\n      uint _date,\n      string memory _name,\n      string memory _description,\n      string memory _location,\n      HOTEL_CATEGORY _category,\n      string memory _photo\n      ){\n    HotelItem storage hotelItem = hotelItemId[_hotelId];\n    _id = hotelItem.id;\n    _totalRooms = hotelItem.totalRooms;\n    _date = hotelItem.creationDate;\n    _name = hotelItem.name;\n    _description = hotelItem.description;\n    _location = hotelItem.locationAddress;\n    _category = hotelItem.hotelCategory;\n    _photo  = hotelItem.imageHash;\n  }\n\n  function changeHotelCategory(uint _hotelId, HOTEL_CATEGORY _category) public hotelExists(_hotelId) ownsHotel(_hotelId) {\n     HotelItem storage hotelItem = hotelItemId[_hotelId];\n     assert(_category != DEFAULT_HOTEL_TYPE);\n     assert(_category != hotelItem.hotelCategory);\n     hotelItem.hotelCategory = _category;\n     emit HotelCategoryChanged(msg.sender, block.timestamp, _category);\n  }\n\n  function getName(uint _hotelId) external virtual view override hotelExists(_hotelId) returns(string memory){\n      return hotelItemId[_hotelId].name;\n  }\n\n  function getId(uint _hotelId) external virtual view override hotelExists(_hotelId) returns(uint){\n      return hotelItemId[_hotelId].id;\n  }\n\n  function changeHotelOwner(address payable _newOwner, uint _hotelId) public hotelExists(_hotelId) ownsHotel(_hotelId){\n      require(msg.sender != _newOwner,\"You are the rightful owner already\");\n      require(_newOwner != address(0),\"Please specify a valid ETH address\");\n      hotelItemId[_hotelId].user = _newOwner;\n      emit HotelOwnerChanged(msg.sender, _newOwner, block.timestamp);\n  }\n}\n",
  "sourcePath": "D:\\mub\\selfImprovement\\Blockchain\\4_work\\BookingHotel(Frontend)\\src\\contracts\\Hotel.sol",
  "compiler": {
    "name": "solc",
    "version": "0.8.16+commit.07a7930e.Emscripten.clang"
  },
  "schemaVersion": "3.4.7",
  "updatedAt": "2022-08-26T16:26:16.321Z",
  "devdoc": {
    "author": "Dickens Odera dickensodera9@gmail.com*",
    "details": "A simple Smart Contract for hotel management",
    "kind": "dev",
    "methods": {
      "owner()": {
        "details": "Returns the address of the current owner."
      },
      "renounceOwnership()": {
        "details": "Leaves the contract without owner. It will not be possible to call `onlyOwner` functions anymore. Can only be called by the current owner. NOTE: Renouncing ownership will leave the contract without an owner, thereby removing any functionality that is only available to the owner."
      },
      "transferOwnership(address)": {
        "details": "Transfers ownership of the contract to a new account (`newOwner`). Can only be called by the current owner."
      }
    },
    "title": "Hotel Booking ",
    "version": 1
  },
  "userdoc": {
    "kind": "user",
    "methods": {},
    "version": 1
  }
}