{
  "contractName": "Room",
  "abi": [
    {
      "inputs": [],
      "stateMutability": "nonpayable",
      "type": "constructor"
    },
    {
      "anonymous": false,
      "inputs": [
        {
          "indexed": true,
          "internalType": "address",
          "name": "causer",
          "type": "address"
        },
        {
          "indexed": false,
          "internalType": "uint256",
          "name": "date",
          "type": "uint256"
        },
        {
          "indexed": true,
          "internalType": "enum Hotel.HOTEL_CATEGORY",
          "name": "newCategory",
          "type": "uint8"
        }
      ],
      "name": "HotelCategoryChanged",
      "type": "event"
    },
    {
      "anonymous": false,
      "inputs": [
        {
          "indexed": false,
          "internalType": "uint256",
          "name": "date",
          "type": "uint256"
        },
        {
          "indexed": true,
          "internalType": "address",
          "name": "causer",
          "type": "address"
        },
        {
          "indexed": true,
          "internalType": "uint256",
          "name": "id",
          "type": "uint256"
        }
      ],
      "name": "HotelCreated",
      "type": "event"
    },
    {
      "anonymous": false,
      "inputs": [
        {
          "indexed": true,
          "internalType": "address",
          "name": "user",
          "type": "address"
        },
        {
          "indexed": true,
          "internalType": "uint256",
          "name": "date",
          "type": "uint256"
        },
        {
          "indexed": true,
          "internalType": "uint256",
          "name": "fee",
          "type": "uint256"
        }
      ],
      "name": "HotelListingFeeChanged",
      "type": "event"
    },
    {
      "anonymous": false,
      "inputs": [
        {
          "indexed": true,
          "internalType": "address",
          "name": "causer",
          "type": "address"
        },
        {
          "indexed": true,
          "internalType": "address",
          "name": "newOwner",
          "type": "address"
        },
        {
          "indexed": false,
          "internalType": "uint256",
          "name": "date",
          "type": "uint256"
        }
      ],
      "name": "HotelOwnerChanged",
      "type": "event"
    },
    {
      "anonymous": false,
      "inputs": [
        {
          "indexed": true,
          "internalType": "address",
          "name": "user",
          "type": "address"
        },
        {
          "indexed": false,
          "internalType": "uint256",
          "name": "date",
          "type": "uint256"
        },
        {
          "indexed": false,
          "internalType": "uint256",
          "name": "id",
          "type": "uint256"
        }
      ],
      "name": "NewRoomCreated",
      "type": "event"
    },
    {
      "anonymous": false,
      "inputs": [
        {
          "indexed": true,
          "internalType": "address",
          "name": "previousOwner",
          "type": "address"
        },
        {
          "indexed": true,
          "internalType": "address",
          "name": "newOwner",
          "type": "address"
        }
      ],
      "name": "OwnershipTransferred",
      "type": "event"
    },
    {
      "anonymous": false,
      "inputs": [
        {
          "indexed": false,
          "internalType": "uint256",
          "name": "date",
          "type": "uint256"
        },
        {
          "indexed": true,
          "internalType": "address",
          "name": "tenant",
          "type": "address"
        },
        {
          "indexed": true,
          "internalType": "uint256",
          "name": "amountPaid",
          "type": "uint256"
        },
        {
          "indexed": true,
          "internalType": "uint256",
          "name": "roomId",
          "type": "uint256"
        }
      ],
      "name": "RoomBooked",
      "type": "event"
    },
    {
      "anonymous": false,
      "inputs": [
        {
          "indexed": true,
          "internalType": "address",
          "name": "user",
          "type": "address"
        },
        {
          "indexed": false,
          "internalType": "uint256",
          "name": "price",
          "type": "uint256"
        },
        {
          "indexed": true,
          "internalType": "uint256",
          "name": "date",
          "type": "uint256"
        }
      ],
      "name": "RoomNightPriceSet",
      "type": "event"
    },
    {
      "inputs": [
        {
          "internalType": "string",
          "name": "_name",
          "type": "string"
        },
        {
          "internalType": "string",
          "name": "_description",
          "type": "string"
        },
        {
          "internalType": "string",
          "name": "_location",
          "type": "string"
        },
        {
          "internalType": "string",
          "name": "_imageHash",
          "type": "string"
        }
      ],
      "name": "addHotel",
      "outputs": [],
      "stateMutability": "payable",
      "type": "function"
    },
    {
      "inputs": [
        {
          "internalType": "uint256",
          "name": "_hotelId",
          "type": "uint256"
        },
        {
          "internalType": "enum Hotel.HOTEL_CATEGORY",
          "name": "_category",
          "type": "uint8"
        }
      ],
      "name": "changeHotelCategory",
      "outputs": [],
      "stateMutability": "nonpayable",
      "type": "function"
    },
    {
      "inputs": [
        {
          "internalType": "address payable",
          "name": "_newOwner",
          "type": "address"
        },
        {
          "internalType": "uint256",
          "name": "_hotelId",
          "type": "uint256"
        }
      ],
      "name": "changeHotelOwner",
      "outputs": [],
      "stateMutability": "nonpayable",
      "type": "function"
    },
    {
      "inputs": [
        {
          "internalType": "uint256",
          "name": "",
          "type": "uint256"
        }
      ],
      "name": "existingHotelItemId",
      "outputs": [
        {
          "internalType": "bool",
          "name": "",
          "type": "bool"
        }
      ],
      "stateMutability": "view",
      "type": "function"
    },
    {
      "inputs": [
        {
          "internalType": "string",
          "name": "",
          "type": "string"
        }
      ],
      "name": "existingHotelItemName",
      "outputs": [
        {
          "internalType": "bool",
          "name": "",
          "type": "bool"
        }
      ],
      "stateMutability": "view",
      "type": "function"
    },
    {
      "inputs": [
        {
          "internalType": "uint256",
          "name": "",
          "type": "uint256"
        }
      ],
      "name": "existingRoomItem",
      "outputs": [
        {
          "internalType": "bool",
          "name": "",
          "type": "bool"
        }
      ],
      "stateMutability": "view",
      "type": "function"
    },
    {
      "inputs": [
        {
          "internalType": "string",
          "name": "",
          "type": "string"
        }
      ],
      "name": "existingRoomItemName",
      "outputs": [
        {
          "internalType": "bool",
          "name": "",
          "type": "bool"
        }
      ],
      "stateMutability": "view",
      "type": "function"
    },
    {
      "inputs": [
        {
          "internalType": "uint256",
          "name": "_hotelId",
          "type": "uint256"
        }
      ],
      "name": "getHotelBioData",
      "outputs": [
        {
          "internalType": "uint256",
          "name": "_id",
          "type": "uint256"
        },
        {
          "internalType": "uint256",
          "name": "_totalRooms",
          "type": "uint256"
        },
        {
          "internalType": "uint256",
          "name": "_date",
          "type": "uint256"
        },
        {
          "internalType": "string",
          "name": "_name",
          "type": "string"
        },
        {
          "internalType": "string",
          "name": "_description",
          "type": "string"
        },
        {
          "internalType": "string",
          "name": "_location",
          "type": "string"
        },
        {
          "internalType": "enum Hotel.HOTEL_CATEGORY",
          "name": "_category",
          "type": "uint8"
        },
        {
          "internalType": "string",
          "name": "_photo",
          "type": "string"
        }
      ],
      "stateMutability": "view",
      "type": "function"
    },
    {
      "inputs": [
        {
          "internalType": "uint256",
          "name": "hotelId",
          "type": "uint256"
        }
      ],
      "name": "getImageHash",
      "outputs": [
        {
          "internalType": "string",
          "name": "_imageHash",
          "type": "string"
        }
      ],
      "stateMutability": "view",
      "type": "function"
    },
    {
      "inputs": [],
      "name": "hotelCategory",
      "outputs": [
        {
          "internalType": "enum Hotel.HOTEL_CATEGORY",
          "name": "",
          "type": "uint8"
        }
      ],
      "stateMutability": "view",
      "type": "function"
    },
    {
      "inputs": [
        {
          "internalType": "uint256",
          "name": "",
          "type": "uint256"
        }
      ],
      "name": "hotelItemId",
      "outputs": [
        {
          "internalType": "uint256",
          "name": "id",
          "type": "uint256"
        },
        {
          "internalType": "uint256",
          "name": "totalRooms",
          "type": "uint256"
        },
        {
          "internalType": "uint256",
          "name": "creationDate",
          "type": "uint256"
        },
        {
          "internalType": "string",
          "name": "name",
          "type": "string"
        },
        {
          "internalType": "enum Hotel.HOTEL_CATEGORY",
          "name": "hotelCategory",
          "type": "uint8"
        },
        {
          "internalType": "string",
          "name": "description",
          "type": "string"
        },
        {
          "internalType": "string",
          "name": "locationAddress",
          "type": "string"
        },
        {
          "internalType": "address payable",
          "name": "user",
          "type": "address"
        },
        {
          "internalType": "string",
          "name": "imageHash",
          "type": "string"
        }
      ],
      "stateMutability": "view",
      "type": "function"
    },
    {
      "inputs": [
        {
          "internalType": "uint256",
          "name": "",
          "type": "uint256"
        }
      ],
      "name": "hotelItems",
      "outputs": [
        {
          "internalType": "uint256",
          "name": "id",
          "type": "uint256"
        },
        {
          "internalType": "uint256",
          "name": "totalRooms",
          "type": "uint256"
        },
        {
          "internalType": "uint256",
          "name": "creationDate",
          "type": "uint256"
        },
        {
          "internalType": "string",
          "name": "name",
          "type": "string"
        },
        {
          "internalType": "enum Hotel.HOTEL_CATEGORY",
          "name": "hotelCategory",
          "type": "uint8"
        },
        {
          "internalType": "string",
          "name": "description",
          "type": "string"
        },
        {
          "internalType": "string",
          "name": "locationAddress",
          "type": "string"
        },
        {
          "internalType": "address payable",
          "name": "user",
          "type": "address"
        },
        {
          "internalType": "string",
          "name": "imageHash",
          "type": "string"
        }
      ],
      "stateMutability": "view",
      "type": "function"
    },
    {
      "inputs": [],
      "name": "hotelListingFee",
      "outputs": [
        {
          "internalType": "uint256",
          "name": "",
          "type": "uint256"
        }
      ],
      "stateMutability": "view",
      "type": "function"
    },
    {
      "inputs": [
        {
          "internalType": "address",
          "name": "",
          "type": "address"
        }
      ],
      "name": "hotelOwner",
      "outputs": [
        {
          "internalType": "uint256",
          "name": "id",
          "type": "uint256"
        },
        {
          "internalType": "uint256",
          "name": "totalRooms",
          "type": "uint256"
        },
        {
          "internalType": "uint256",
          "name": "creationDate",
          "type": "uint256"
        },
        {
          "internalType": "string",
          "name": "name",
          "type": "string"
        },
        {
          "internalType": "enum Hotel.HOTEL_CATEGORY",
          "name": "hotelCategory",
          "type": "uint8"
        },
        {
          "internalType": "string",
          "name": "description",
          "type": "string"
        },
        {
          "internalType": "string",
          "name": "locationAddress",
          "type": "string"
        },
        {
          "internalType": "address payable",
          "name": "user",
          "type": "address"
        },
        {
          "internalType": "string",
          "name": "imageHash",
          "type": "string"
        }
      ],
      "stateMutability": "view",
      "type": "function"
    },
    {
      "inputs": [],
      "name": "listAllHotels",
      "outputs": [
        {
          "components": [
            {
              "internalType": "uint256",
              "name": "id",
              "type": "uint256"
            },
            {
              "internalType": "uint256",
              "name": "totalRooms",
              "type": "uint256"
            },
            {
              "internalType": "uint256",
              "name": "creationDate",
              "type": "uint256"
            },
            {
              "internalType": "string",
              "name": "name",
              "type": "string"
            },
            {
              "internalType": "enum Hotel.HOTEL_CATEGORY",
              "name": "hotelCategory",
              "type": "uint8"
            },
            {
              "internalType": "string",
              "name": "description",
              "type": "string"
            },
            {
              "internalType": "string",
              "name": "locationAddress",
              "type": "string"
            },
            {
              "internalType": "address payable",
              "name": "user",
              "type": "address"
            },
            {
              "internalType": "string",
              "name": "imageHash",
              "type": "string"
            }
          ],
          "internalType": "struct Hotel.HotelItem[]",
          "name": "",
          "type": "tuple[]"
        }
      ],
      "stateMutability": "view",
      "type": "function"
    },
    {
      "inputs": [],
      "name": "owner",
      "outputs": [
        {
          "internalType": "address",
          "name": "",
          "type": "address"
        }
      ],
      "stateMutability": "view",
      "type": "function"
    },
    {
      "inputs": [],
      "name": "renounceOwnership",
      "outputs": [],
      "stateMutability": "nonpayable",
      "type": "function"
    },
    {
      "inputs": [
        {
          "internalType": "uint256",
          "name": "",
          "type": "uint256"
        }
      ],
      "name": "roomItemId",
      "outputs": [
        {
          "internalType": "uint256",
          "name": "id",
          "type": "uint256"
        },
        {
          "internalType": "uint256",
          "name": "totalBeds",
          "type": "uint256"
        },
        {
          "internalType": "uint256",
          "name": "hotelId",
          "type": "uint256"
        },
        {
          "internalType": "uint256",
          "name": "pricePerNight",
          "type": "uint256"
        },
        {
          "internalType": "uint256",
          "name": "number",
          "type": "uint256"
        },
        {
          "internalType": "bool",
          "name": "isBooked",
          "type": "bool"
        },
        {
          "internalType": "address payable",
          "name": "user",
          "type": "address"
        },
        {
          "internalType": "string",
          "name": "name",
          "type": "string"
        },
        {
          "internalType": "string",
          "name": "description",
          "type": "string"
        }
      ],
      "stateMutability": "view",
      "type": "function"
    },
    {
      "inputs": [
        {
          "internalType": "address",
          "name": "",
          "type": "address"
        }
      ],
      "name": "roomOwner",
      "outputs": [
        {
          "internalType": "uint256",
          "name": "id",
          "type": "uint256"
        },
        {
          "internalType": "uint256",
          "name": "totalBeds",
          "type": "uint256"
        },
        {
          "internalType": "uint256",
          "name": "hotelId",
          "type": "uint256"
        },
        {
          "internalType": "uint256",
          "name": "pricePerNight",
          "type": "uint256"
        },
        {
          "internalType": "uint256",
          "name": "number",
          "type": "uint256"
        },
        {
          "internalType": "bool",
          "name": "isBooked",
          "type": "bool"
        },
        {
          "internalType": "address payable",
          "name": "user",
          "type": "address"
        },
        {
          "internalType": "string",
          "name": "name",
          "type": "string"
        },
        {
          "internalType": "string",
          "name": "description",
          "type": "string"
        }
      ],
      "stateMutability": "view",
      "type": "function"
    },
    {
      "inputs": [
        {
          "internalType": "uint256",
          "name": "",
          "type": "uint256"
        }
      ],
      "name": "roomTenant",
      "outputs": [
        {
          "internalType": "address",
          "name": "",
          "type": "address"
        }
      ],
      "stateMutability": "view",
      "type": "function"
    },
    {
      "inputs": [
        {
          "internalType": "uint256",
          "name": "",
          "type": "uint256"
        }
      ],
      "name": "rooms",
      "outputs": [
        {
          "internalType": "uint256",
          "name": "id",
          "type": "uint256"
        },
        {
          "internalType": "uint256",
          "name": "totalBeds",
          "type": "uint256"
        },
        {
          "internalType": "uint256",
          "name": "hotelId",
          "type": "uint256"
        },
        {
          "internalType": "uint256",
          "name": "pricePerNight",
          "type": "uint256"
        },
        {
          "internalType": "uint256",
          "name": "number",
          "type": "uint256"
        },
        {
          "internalType": "bool",
          "name": "isBooked",
          "type": "bool"
        },
        {
          "internalType": "address payable",
          "name": "user",
          "type": "address"
        },
        {
          "internalType": "string",
          "name": "name",
          "type": "string"
        },
        {
          "internalType": "string",
          "name": "description",
          "type": "string"
        }
      ],
      "stateMutability": "view",
      "type": "function"
    },
    {
      "inputs": [
        {
          "internalType": "uint256",
          "name": "hotelId",
          "type": "uint256"
        },
        {
          "internalType": "string",
          "name": "imageHash",
          "type": "string"
        }
      ],
      "name": "setImageHash",
      "outputs": [],
      "stateMutability": "nonpayable",
      "type": "function"
    },
    {
      "inputs": [
        {
          "internalType": "uint256",
          "name": "_fee",
          "type": "uint256"
        }
      ],
      "name": "setListingFee",
      "outputs": [],
      "stateMutability": "nonpayable",
      "type": "function"
    },
    {
      "inputs": [],
      "name": "totalHotels",
      "outputs": [
        {
          "internalType": "uint256",
          "name": "",
          "type": "uint256"
        }
      ],
      "stateMutability": "view",
      "type": "function"
    },
    {
      "inputs": [],
      "name": "totalRooms",
      "outputs": [
        {
          "internalType": "uint256",
          "name": "",
          "type": "uint256"
        }
      ],
      "stateMutability": "view",
      "type": "function"
    },
    {
      "inputs": [
        {
          "internalType": "address",
          "name": "newOwner",
          "type": "address"
        }
      ],
      "name": "transferOwnership",
      "outputs": [],
      "stateMutability": "nonpayable",
      "type": "function"
    },
    {
      "inputs": [
        {
          "internalType": "uint256",
          "name": "_hotelId",
          "type": "uint256"
        },
        {
          "internalType": "uint256",
          "name": "_totalBeds",
          "type": "uint256"
        },
        {
          "internalType": "uint256",
          "name": "_pricePerNight",
          "type": "uint256"
        },
        {
          "internalType": "uint256",
          "name": "_number",
          "type": "uint256"
        },
        {
          "internalType": "string",
          "name": "_name",
          "type": "string"
        },
        {
          "internalType": "string",
          "name": "_description",
          "type": "string"
        }
      ],
      "name": "addRoom",
      "outputs": [],
      "stateMutability": "nonpayable",
      "type": "function"
    },
    {
      "inputs": [
        {
          "internalType": "uint256",
          "name": "_roomId",
          "type": "uint256"
        }
      ],
      "name": "getRoomBioData",
      "outputs": [
        {
          "internalType": "uint256",
          "name": "_id",
          "type": "uint256"
        },
        {
          "internalType": "uint256",
          "name": "_numOfBeds",
          "type": "uint256"
        },
        {
          "internalType": "uint256",
          "name": "_hotelId",
          "type": "uint256"
        },
        {
          "internalType": "uint256",
          "name": "_pricePerNight",
          "type": "uint256"
        },
        {
          "internalType": "uint256",
          "name": "_number",
          "type": "uint256"
        },
        {
          "internalType": "bool",
          "name": "_isBooked",
          "type": "bool"
        },
        {
          "internalType": "address",
          "name": "_user",
          "type": "address"
        },
        {
          "internalType": "string",
          "name": "_name",
          "type": "string"
        },
        {
          "internalType": "string",
          "name": "_description",
          "type": "string"
        }
      ],
      "stateMutability": "view",
      "type": "function"
    },
    {
      "inputs": [
        {
          "internalType": "uint256",
          "name": "_roomId",
          "type": "uint256"
        }
      ],
      "name": "getName",
      "outputs": [
        {
          "internalType": "string",
          "name": "",
          "type": "string"
        }
      ],
      "stateMutability": "view",
      "type": "function"
    },
    {
      "inputs": [
        {
          "internalType": "uint256",
          "name": "_roomId",
          "type": "uint256"
        }
      ],
      "name": "getId",
      "outputs": [
        {
          "internalType": "uint256",
          "name": "",
          "type": "uint256"
        }
      ],
      "stateMutability": "view",
      "type": "function"
    },
    {
      "inputs": [
        {
          "internalType": "uint256",
          "name": "_roomId",
          "type": "uint256"
        },
        {
          "internalType": "uint256",
          "name": "_price",
          "type": "uint256"
        }
      ],
      "name": "setNightPrice",
      "outputs": [],
      "stateMutability": "nonpayable",
      "type": "function"
    },
    {
      "inputs": [],
      "name": "listRooms",
      "outputs": [
        {
          "components": [
            {
              "internalType": "uint256",
              "name": "id",
              "type": "uint256"
            },
            {
              "internalType": "uint256",
              "name": "totalBeds",
              "type": "uint256"
            },
            {
              "internalType": "uint256",
              "name": "hotelId",
              "type": "uint256"
            },
            {
              "internalType": "uint256",
              "name": "pricePerNight",
              "type": "uint256"
            },
            {
              "internalType": "uint256",
              "name": "number",
              "type": "uint256"
            },
            {
              "internalType": "bool",
              "name": "isBooked",
              "type": "bool"
            },
            {
              "internalType": "address payable",
              "name": "user",
              "type": "address"
            },
            {
              "internalType": "string",
              "name": "name",
              "type": "string"
            },
            {
              "internalType": "string",
              "name": "description",
              "type": "string"
            }
          ],
          "internalType": "struct Room.RoomItem[]",
          "name": "",
          "type": "tuple[]"
        }
      ],
      "stateMutability": "view",
      "type": "function"
    }
  ],
  "bytecode": "0x60806040526000600255660187152d40e0006003556000600b553480156200002657600080fd5b5062000032336200003c565b600180556200008c565b600080546001600160a01b038381166001600160a01b0319831681178455604051919092169283917f8be0079c531659141344cd1fd0a4f28419497f9722a3daafe3b4186f6b6457e09190a35050565b613379806200009c6000396000f3fe6080604052600436106101e35760003560e01c806374dbda0511610102578063b2afef8211610095578063c89e496311610064578063c89e496314610639578063cee9e07814610659578063f2fde38b14610689578063fd5fddd8146106a957600080fd5b8063b2afef82146105c1578063bbc02ce2146105e1578063c210c532146105f7578063c5a56e821461061957600080fd5b80639524a38e116100d15780639524a38e1461054b578063958aa59b1461056b5780639e3edce91461058b578063af5537fa146105ab57600080fd5b806374dbda051461049957806380865877146104c95780638da5cb5b1461051757806391aa84891461053557600080fd5b8063387329f91161017a578063628344621161014957806362834462146104175780636b8ff5741461044457806370f3bfd814610464578063715018a61461048457600080fd5b8063387329f9146103615780634dce717e146103815780634ee9a94d146103bc578063545a153a146103dc57600080fd5b8063131dbd09116101b6578063131dbd09146102b55780631bae0ac8146102d7578063307764971461030c5780633716236e1461032c57600080fd5b80630aaecc35146101e85780630af272f7146102385780630fa0200d1461026c57806310f7019214610293575b600080fd5b3480156101f457600080fd5b506102236102033660046129e7565b805160208183018101805160128252928201919093012091525460ff1681565b60405190151581526020015b60405180910390f35b34801561024457600080fd5b50610258610253366004612a24565b6106bc565b60405161022f989796959493929190612ac5565b34801561027857600080fd5b506005546102869060ff1681565b60405161022f9190612b43565b34801561029f57600080fd5b506102a8610983565b60405161022f9190612b51565b3480156102c157600080fd5b506102d56102d0366004612a24565b610b60565b005b3480156102e357600080fd5b506102f76102f2366004612a24565b610bef565b60405161022f99989796959493929190612c30565b34801561031857600080fd5b506102f7610327366004612a24565b610d6c565b34801561033857600080fd5b5061034c610347366004612cb2565b610dc6565b60405161022f99989796959493929190612cd6565b34801561036d57600080fd5b506102d561037c366004612d55565b610fc4565b34801561038d57600080fd5b5061022361039c3660046129e7565b8051602081830181018051600a8252928201919093012091525460ff1681565b3480156103c857600080fd5b506102f76103d7366004612cb2565b611163565b3480156103e857600080fd5b506104096103f7366004612a24565b60009081526010602052604090205490565b60405190815260200161022f565b34801561042357600080fd5b50610437610432366004612a24565b6111bd565b60405161022f9190612d81565b34801561045057600080fd5b5061043761045f366004612a24565b611294565b34801561047057600080fd5b506102d561047f366004612d94565b6112b4565b34801561049057600080fd5b506102d56113ff565b3480156104a557600080fd5b506102236104b4366004612a24565b60096020526000908152604090205460ff1681565b3480156104d557600080fd5b506104ff6104e4366004612a24565b600f602052600090815260409020546001600160a01b031681565b6040516001600160a01b03909116815260200161022f565b34801561052357600080fd5b506000546001600160a01b03166104ff565b34801561054157600080fd5b5061040960035481565b34801561055757600080fd5b5061034c610566366004612a24565b611413565b34801561057757600080fd5b506102f7610586366004612a24565b611443565b34801561059757600080fd5b506102d56105a6366004612dc8565b611644565b3480156105b757600080fd5b50610409600b5481565b3480156105cd57600080fd5b506102d56105dc366004612e0f565b611697565b3480156105ed57600080fd5b5061040960025481565b34801561060357600080fd5b5061060c611d46565b60405161022f9190612e98565b34801561062557600080fd5b506102d5610634366004612f99565b61204d565b34801561064557600080fd5b5061034c610654366004612a24565b61214e565b34801561066557600080fd5b50610223610674366004612a24565b60116020526000908152604090205460ff1681565b34801561069557600080fd5b506102d56106a4366004612cb2565b612193565b6102d56106b7366004612fbb565b61220c565b600081815260096020526040812054819081906060908190819084908290899060ff1615156001146107095760405162461bcd60e51b815260040161070090613068565b60405180910390fd5b60008a8152600760205260409020805460018201546002830154600384018054939d50919b5099509061073b90613096565b80601f016020809104026020016040519081016040528092919081815260200182805461076790613096565b80156107b45780601f10610789576101008083540402835291602001916107b4565b820191906000526020600020905b81548152906001019060200180831161079757829003601f168201915b505050505096508060050180546107ca90613096565b80601f01602080910402602001604051908101604052809291908181526020018280546107f690613096565b80156108435780601f1061081857610100808354040283529160200191610843565b820191906000526020600020905b81548152906001019060200180831161082657829003601f168201915b5050505050955080600601805461085990613096565b80601f016020809104026020016040519081016040528092919081815260200182805461088590613096565b80156108d25780601f106108a7576101008083540402835291602001916108d2565b820191906000526020600020905b8154815290600101906020018083116108b557829003601f168201915b50505050600483015460088401805493985060ff9091169650916108f69150613096565b80601f016020809104026020016040519081016040528092919081815260200182805461092290613096565b801561096f5780601f106109445761010080835404028352916020019161096f565b820191906000526020600020905b81548152906001019060200180831161095257829003601f168201915b505050505092505050919395975091939597565b6060600d805480602002602001604051908101604052809291908181526020016000905b82821015610b57576000848152602090819020604080516101208101825260088602909201805483526001810154938301939093526002830154908201526003820154606082015260048201546080820152600582015460ff8116151560a083015261010090046001600160a01b031660c082015260068201805491929160e084019190610a3490613096565b80601f0160208091040260200160405190810160405280929190818152602001828054610a6090613096565b8015610aad5780601f10610a8257610100808354040283529160200191610aad565b820191906000526020600020905b815481529060010190602001808311610a9057829003601f168201915b50505050508152602001600782018054610ac690613096565b80601f0160208091040260200160405190810160405280929190818152602001828054610af290613096565b8015610b3f5780601f10610b1457610100808354040283529160200191610b3f565b820191906000526020600020905b815481529060010190602001808311610b2257829003601f168201915b505050505081525050815260200190600101906109a7565b50505050905090565b610b68612885565b80600003610bb85760405162461bcd60e51b815260206004820152601a60248201527f4c697374696e67204665652043616e6e6f74206265207a65726f0000000000006044820152606401610700565b60038190556040518190429033907fd86cac97cd3caa153b72db918dc0feb1ed9683dfd389c345d07f7d00390b63b790600090a450565b600d8181548110610bff57600080fd5b60009182526020909120600890910201805460018201546002830154600384015460048501546005860154600687018054969850949693959294919360ff8216936101009092046001600160a01b0316929091610c5b90613096565b80601f0160208091040260200160405190810160405280929190818152602001828054610c8790613096565b8015610cd45780601f10610ca957610100808354040283529160200191610cd4565b820191906000526020600020905b815481529060010190602001808311610cb757829003601f168201915b505050505090806007018054610ce990613096565b80601f0160208091040260200160405190810160405280929190818152602001828054610d1590613096565b8015610d625780601f10610d3757610100808354040283529160200191610d62565b820191906000526020600020905b815481529060010190602001808311610d4557829003601f168201915b5050505050905089565b60106020526000908152604090208054600182015460028301546003840154600485015460058601546006870180549697959694959394929360ff8316936101009093046001600160a01b031692909190610c5b90613096565b600860205260009081526040902080546001820154600283015460038401805493949293919291610df690613096565b80601f0160208091040260200160405190810160405280929190818152602001828054610e2290613096565b8015610e6f5780601f10610e4457610100808354040283529160200191610e6f565b820191906000526020600020905b815481529060010190602001808311610e5257829003601f168201915b5050506004840154600585018054949560ff909216949193509150610e9390613096565b80601f0160208091040260200160405190810160405280929190818152602001828054610ebf90613096565b8015610f0c5780601f10610ee157610100808354040283529160200191610f0c565b820191906000526020600020905b815481529060010190602001808311610eef57829003601f168201915b505050505090806006018054610f2190613096565b80601f0160208091040260200160405190810160405280929190818152602001828054610f4d90613096565b8015610f9a5780601f10610f6f57610100808354040283529160200191610f9a565b820191906000526020600020905b815481529060010190602001808311610f7d57829003601f168201915b505050600784015460088501805494956001600160a01b03909216949193509150610ce990613096565b600081815260096020526040902054819060ff161515600114610ff95760405162461bcd60e51b815260040161070090613068565b6000828152600760208190526040909120015482906001600160a01b031633146110355760405162461bcd60e51b8152600401610700906130d0565b6001600160a01b03841633036110985760405162461bcd60e51b815260206004820152602260248201527f596f75206172652074686520726967687466756c206f776e657220616c726561604482015261647960f01b6064820152608401610700565b6001600160a01b0384166110f95760405162461bcd60e51b815260206004820152602260248201527f506c65617365207370656369667920612076616c696420455448206164647265604482015261737360f01b6064820152608401610700565b60008381526007602081815260409283902090910180546001600160a01b0319166001600160a01b038816908117909155915142815233917fa4384cd8553d716f837cc7d68ed60529f9672b59cf96f1ce8bef3334183db34a91015b60405180910390a350505050565b600e6020526000908152604090208054600182015460028301546003840154600485015460058601546006870180549697959694959394929360ff8316936101009093046001600160a01b031692909190610c5b90613096565b60008181526009602052604090205460609060ff1615156001146111f35760405162461bcd60e51b815260040161070090613068565b6000828152600760205260409020600801805461120f90613096565b80601f016020809104026020016040519081016040528092919081815260200182805461123b90613096565b80156112885780601f1061125d57610100808354040283529160200191611288565b820191906000526020600020905b81548152906001019060200180831161126b57829003601f168201915b50505050509050919050565b600081815260106020526040902060060180546060919061120f90613096565b600082815260096020526040902054829060ff1615156001146112e95760405162461bcd60e51b815260040161070090613068565b6000838152600760208190526040909120015483906001600160a01b031633146113255760405162461bcd60e51b8152600401610700906130d0565b60008481526007602052604081209084600681111561134657611346612a8d565b0361135357611353613107565b600481015460ff16600681111561136c5761136c612a8d565b84600681111561137e5761137e612a8d565b0361138b5761138b613107565b60048101805485919060ff191660018360068111156113ac576113ac612a8d565b02179055508360068111156113c3576113c3612a8d565b60405142815233907ff5b844f9650efd8a638976417da0e54ababae9d5ae6ec7dbc97124f00d5a5c5e9060200160405180910390a35050505050565b611407612885565b61141160006128df565b565b600760205260009081526040902080546001820154600283015460038401805493949293919291610df690613096565b60008181526011602052604081205481908190819081908190819060609081908a9060ff1615156001146114af5760405162461bcd60e51b8152602060048201526013602482015272149bdbdb48111bd95cc8139bdd08115e1a5cdd606a1b6044820152606401610700565b6000601060008d8152602001908152602001600020905080600001549a50806001015499508060020154985080600301549750806004015496508060050160009054906101000a900460ff1695508060050160019054906101000a90046001600160a01b0316945080600601805461152690613096565b80601f016020809104026020016040519081016040528092919081815260200182805461155290613096565b801561159f5780601f106115745761010080835404028352916020019161159f565b820191906000526020600020905b81548152906001019060200180831161158257829003601f168201915b505050505093508060070180546115b590613096565b80601f01602080910402602001604051908101604052809291908181526020018280546115e190613096565b801561162e5780601f106116035761010080835404028352916020019161162e565b820191906000526020600020905b81548152906001019060200180831161161157829003601f168201915b5050505050925050509193959799909294969850565b60008281526009602052604090205460ff1615156001146116775760405162461bcd60e51b815260040161070090613068565b6000828152600760205260409020600801611692828261316b565b505050565b600086815260096020526040902054869060ff1615156001146116cc5760405162461bcd60e51b815260040161070090613068565b6000878152600760208190526040909120015487906001600160a01b031633146117085760405162461bcd60e51b8152600401610700906130d0565b83600081511161175a5760405162461bcd60e51b815260206004820152601c60248201527f506c6561736520737065636966792074686520726f6f6d206e616d65000000006044820152606401610700565b60128160405161176a919061322b565b9081526040519081900360200190205460ff16156117bd5760405162461bcd60e51b815260206004820152601060248201526f526f6f6d204e616d652045786973747360801b6044820152606401610700565b336117c757600080fd5b876000036118175760405162461bcd60e51b815260206004820152601d60248201527f4e756d626572206f6620626564732063616e6e6f74206265207a65726f0000006044820152606401610700565b60008451116118745760405162461bcd60e51b815260206004820152602360248201527f506c6561736520737065636966792074686520726f6f6d20646573637269707460448201526234b7b760e91b6064820152608401610700565b866000036118d05760405162461bcd60e51b815260206004820152602360248201527f54686520726f6f6d206e696768742070726963652063616e6e6f74206265207a60448201526265726f60e81b6064820152608401610700565b6118de600c80546001019055565b60006118e9600c5490565b90506000600760008c81526020019081526020016000206000015490506000600760008d81526020019081526020016000206001015490506040518061012001604052808481526020018c81526020018381526020018b81526020018a8152602001600015158152602001336001600160a01b031681526020018981526020018881525060106000858152602001908152602001600020600082015181600001556020820151816001015560408201518160020155606082015181600301556080820151816004015560a08201518160050160006101000a81548160ff02191690831515021790555060c08201518160050160016101000a8154816001600160a01b0302191690836001600160a01b0316021790555060e0820151816006019081611a14919061316b565b506101008201516007820190611a2a908261316b565b5050506000838152601060205260408120600d80546001818101835591909352815460089093027fd7b6990105719101dabeb77144f2a3385c8033acd3af97e9423a695e81ad1eb58101938455908201547fd7b6990105719101dabeb77144f2a3385c8033acd3af97e9423a695e81ad1eb682015560028201547fd7b6990105719101dabeb77144f2a3385c8033acd3af97e9423a695e81ad1eb782015560038201547fd7b6990105719101dabeb77144f2a3385c8033acd3af97e9423a695e81ad1eb882015560048201547fd7b6990105719101dabeb77144f2a3385c8033acd3af97e9423a695e81ad1eb98201556005820180547fd7b6990105719101dabeb77144f2a3385c8033acd3af97e9423a695e81ad1eba8301805460ff909216151560ff1983168117825592546001600160a01b03610100918290041602610100600160a81b03199093166001600160a81b0319909216919091179190911790559091907fd7b6990105719101dabeb77144f2a3385c8033acd3af97e9423a695e81ad1ebb01611bbd6006840182613247565b50600781810190611bd090840182613247565b5050506000838152601060209081526040808320338452600e909252909120815481556001808301549082015560028083015490820155600380830154908201556004808301549082015560058083018054918301805460ff909316151560ff198416811782559154610100908190046001600160a01b031602610100600160a81b03199092166001600160a81b031990931692909217179055600680820190611c7c90840182613247565b50600781810190611c8f90840182613247565b50611c9f9150829050600161292f565b600b54909150611cb090600161292f565b600b5560008381526011602052604090819020805460ff191660019081179091559051601290611ce1908b9061322b565b9081526040805160209281900383018120805460ff19169415159490941790935542835290820185905233917f3733808b347b3e95cb4b664d5c8e8fe364fc4dd34b77f49cde3ba2564d78888c910160405180910390a2505050505050505050505050565b60606006805480602002602001604051908101604052809291908181526020016000905b82821015610b57578382906000526020600020906009020160405180610120016040529081600082015481526020016001820154815260200160028201548152602001600382018054611dbc90613096565b80601f0160208091040260200160405190810160405280929190818152602001828054611de890613096565b8015611e355780601f10611e0a57610100808354040283529160200191611e35565b820191906000526020600020905b815481529060010190602001808311611e1857829003601f168201915b5050509183525050600482015460209091019060ff166006811115611e5c57611e5c612a8d565b6006811115611e6d57611e6d612a8d565b8152602001600582018054611e8190613096565b80601f0160208091040260200160405190810160405280929190818152602001828054611ead90613096565b8015611efa5780601f10611ecf57610100808354040283529160200191611efa565b820191906000526020600020905b815481529060010190602001808311611edd57829003601f168201915b50505050508152602001600682018054611f1390613096565b80601f0160208091040260200160405190810160405280929190818152602001828054611f3f90613096565b8015611f8c5780601f10611f6157610100808354040283529160200191611f8c565b820191906000526020600020905b815481529060010190602001808311611f6f57829003601f168201915b505050918352505060078201546001600160a01b03166020820152600882018054604090920191611fbc90613096565b80601f0160208091040260200160405190810160405280929190818152602001828054611fe890613096565b80156120355780601f1061200a57610100808354040283529160200191612035565b820191906000526020600020905b81548152906001019060200180831161201857829003601f168201915b50505050508152505081526020019060010190611d6a565b600082815260106020526040902060050154829061010090046001600160a01b031633146120bd5760405162461bcd60e51b815260206004820152601860248201527f596f7520446f204e6f74204f776e205468697320526f6f6d00000000000000006044820152606401610700565b816000036121045760405162461bcd60e51b815260206004820152601460248201527370726963652043616e6e6f74206265207a65726f60601b6044820152606401610700565b600083815260106020908152604091829020600381018590559151848152429133917f2adffbd83a80d927a3a5c687edc852ca8941019a58261ffb685cc98972ba7c249101611155565b6006818154811061215e57600080fd5b9060005260206000209060090201600091509050806000015490806001015490806002015490806003018054610df690613096565b61219b612885565b6001600160a01b0381166122005760405162461bcd60e51b815260206004820152602660248201527f4f776e61626c653a206e6577206f776e657220697320746865207a65726f206160448201526564647265737360d01b6064820152608401610700565b612209816128df565b50565b83600a8160405161221d919061322b565b9081526040519081900360200190205460ff16156122715760405162461bcd60e51b8152602060048201526011602482015270486f74656c204e616d652045786973747360781b6044820152606401610700565b60008151116122c25760405162461bcd60e51b815260206004820152601d60248201527f506c6561736520737065636966792074686520686f74656c206e616d650000006044820152606401610700565b6002600154036123145760405162461bcd60e51b815260206004820152601f60248201527f5265656e7472616e637947756172643a207265656e7472616e742063616c6c006044820152606401610700565b60026001553361232357600080fd5b600354341461236a5760405162461bcd60e51b8152602060048201526013602482015272496e76616c6964204c697374696e672046656560681b6044820152606401610700565b60008451116123c75760405162461bcd60e51b8152602060048201526024808201527f506c6561736520737065636966792074686520686f74656c20646573637269706044820152633a34b7b760e11b6064820152608401610700565b60008351116124295760405162461bcd60e51b815260206004820152602860248201527f506c65617365207370656369667920746865206c6f636174696f6e206f6620746044820152671a19481a1bdd195b60c21b6064820152608401610700565b612437600480546001019055565b600061244260045490565b9050604051806101200160405280828152602001600081526020014281526020018781526020016000600681111561247c5761247c612a8d565b8152602080820188905260408083018890523360608085019190915260809093018790526000858152600783528190208451815591840151600183015583015160028201559082015160038201906124d4908261316b565b50608082015160048201805460ff191660018360068111156124f8576124f8612a8d565b021790555060a08201516005820190612511908261316b565b5060c08201516006820190612526908261316b565b5060e08201516007820180546001600160a01b0319166001600160a01b039092169190911790556101008201516008820190612562908261316b565b5050506000818152600760205260408120600680546001818101835591909352815460099093027ff652222313e28459528d920b65115c16c04f3efc82aaedc97be59f3f377c0d3f8101938455908201547ff652222313e28459528d920b65115c16c04f3efc82aaedc97be59f3f377c0d4082015560028201547ff652222313e28459528d920b65115c16c04f3efc82aaedc97be59f3f377c0d418201559091907ff652222313e28459528d920b65115c16c04f3efc82aaedc97be59f3f377c0d42016126326003840182613247565b50600482810154908201805460ff9092169160ff1916600183600681111561265c5761265c612a8d565b021790555060058181019061267390840182613247565b5060068181019061268690840182613247565b5060078281015490820180546001600160a01b0319166001600160a01b039092169190911790556008808201906126bf90840182613247565b5050506000818152600760209081526040808320338452600890925290912081548155600180830154908201556002808301549082015560038082019061270890840182613247565b50600482810154908201805460ff9092169160ff1916600183600681111561273257612732612a8d565b021790555060058181019061274990840182613247565b5060068181019061275c90840182613247565b5060078281015490820180546001600160a01b0319166001600160a01b0390921691909117905560088082019061279590840182613247565b50506002546127a69150600161292f565b60025560008181526009602052604090819020805460ff191660019081179091559051600a906127d790899061322b565b908152604051908190036020019020805491151560ff199092169190911790556128096000546001600160a01b031690565b6001600160a01b03166108fc349081150290604051600060405180830381858888f19350505050158015612841573d6000803e3d6000fd5b50604051428152819033907fc8103fc44f19a39b2be3834708c831e6292d5b110a99e06a1f9c1c5f24faf5dd9060200160405180910390a350506001805550505050565b6000546001600160a01b031633146114115760405162461bcd60e51b815260206004820181905260248201527f4f776e61626c653a2063616c6c6572206973206e6f7420746865206f776e65726044820152606401610700565b600080546001600160a01b038381166001600160a01b0319831681178455604051919092169283917f8be0079c531659141344cd1fd0a4f28419497f9722a3daafe3b4186f6b6457e09190a35050565b600061293b8284613322565b90505b92915050565b634e487b7160e01b600052604160045260246000fd5b600082601f83011261296b57600080fd5b813567ffffffffffffffff8082111561298657612986612944565b604051601f8301601f19908116603f011681019082821181831017156129ae576129ae612944565b816040528381528660208588010111156129c757600080fd5b836020870160208301376000602085830101528094505050505092915050565b6000602082840312156129f957600080fd5b813567ffffffffffffffff811115612a1057600080fd5b612a1c8482850161295a565b949350505050565b600060208284031215612a3657600080fd5b5035919050565b60005b83811015612a58578181015183820152602001612a40565b50506000910152565b60008151808452612a79816020860160208601612a3d565b601f01601f19169290920160200192915050565b634e487b7160e01b600052602160045260246000fd5b60078110612ac157634e487b7160e01b600052602160045260246000fd5b9052565b60006101008a8352896020840152886040840152806060840152612aeb81840189612a61565b90508281036080840152612aff8188612a61565b905082810360a0840152612b138187612a61565b9050612b2260c0840186612aa3565b82810360e0840152612b348185612a61565b9b9a5050505050505050505050565b6020810161293e8284612aa3565b60006020808301818452808551808352604092508286019150828160051b87010184880160005b83811015612c2257888303603f1901855281518051845287810151888501528681015187850152606080820151908501526080808201519085015260a08082015115159085015260c0808201516001600160a01b03169085015260e0808201516101208287018190529190612bef83880182612a61565b925050506101008083015192508582038187015250612c0e8183612a61565b968901969450505090860190600101612b78565b509098975050505050505050565b60006101208b83528a602084015289604084015288606084015287608084015286151560a084015260018060a01b03861660c08401528060e0840152612c7881840186612a61565b9050828103610100840152612c8d8185612a61565b9c9b505050505050505050505050565b6001600160a01b038116811461220957600080fd5b600060208284031215612cc457600080fd5b8135612ccf81612c9d565b9392505050565b60006101208b83528a6020840152896040840152806060840152612cfc8184018a612a61565b9050612d0b6080840189612aa3565b82810360a0840152612d1d8188612a61565b905082810360c0840152612d318187612a61565b6001600160a01b03861660e08501528381036101008501529050612c8d8185612a61565b60008060408385031215612d6857600080fd5b8235612d7381612c9d565b946020939093013593505050565b60208152600061293b6020830184612a61565b60008060408385031215612da757600080fd5b82359150602083013560078110612dbd57600080fd5b809150509250929050565b60008060408385031215612ddb57600080fd5b82359150602083013567ffffffffffffffff811115612df957600080fd5b612e058582860161295a565b9150509250929050565b60008060008060008060c08789031215612e2857600080fd5b86359550602087013594506040870135935060608701359250608087013567ffffffffffffffff80821115612e5c57600080fd5b612e688a838b0161295a565b935060a0890135915080821115612e7e57600080fd5b50612e8b89828a0161295a565b9150509295509295509295565b60006020808301818452808551808352604092508286019150828160051b87010184880160005b83811015612c2257603f19898403018552815161012081518552888201518986015287820151888601526060808301518282880152612f0083880182612a61565b92505050608080830151612f1682880182612aa3565b505060a08083015186830382880152612f2f8382612a61565b9250505060c08083015186830382880152612f4a8382612a61565b9250505060e080830151612f68828801826001600160a01b03169052565b50506101008083015192508582038187015250612f858183612a61565b968901969450505090860190600101612ebf565b60008060408385031215612fac57600080fd5b50508035926020909101359150565b60008060008060808587031215612fd157600080fd5b843567ffffffffffffffff80821115612fe957600080fd5b612ff58883890161295a565b9550602087013591508082111561300b57600080fd5b6130178883890161295a565b9450604087013591508082111561302d57600080fd5b6130398883890161295a565b9350606087013591508082111561304f57600080fd5b5061305c8782880161295a565b91505092959194509250565b602080825260149082015273121bdd195b08111bd95cc8139bdd08115e1a5cdd60621b604082015260600190565b600181811c908216806130aa57607f821691505b6020821081036130ca57634e487b7160e01b600052602260045260246000fd5b50919050565b6020808252601e908201527f596f7520446f204e6f74204f776e205468697320486f74656c204974656d0000604082015260600190565b634e487b7160e01b600052600160045260246000fd5b601f82111561169257600081815260208120601f850160051c810160208610156131445750805b601f850160051c820191505b8181101561316357828155600101613150565b505050505050565b815167ffffffffffffffff81111561318557613185612944565b613199816131938454613096565b8461311d565b602080601f8311600181146131ce57600084156131b65750858301515b600019600386901b1c1916600185901b178555613163565b600085815260208120601f198616915b828110156131fd578886015182559484019460019091019084016131de565b508582101561321b5787850151600019600388901b60f8161c191681555b5050505050600190811b01905550565b6000825161323d818460208701612a3d565b9190910192915050565b818103613252575050565b61325c8254613096565b67ffffffffffffffff81111561327457613274612944565b613282816131938454613096565b6000601f8211600181146132b6576000831561329e5750848201545b600019600385901b1c1916600184901b17845561331b565b600085815260209020601f19841690600086815260209020845b838110156132f057828601548255600195860195909101906020016132d0565b508583101561330e5781850154600019600388901b60f8161c191681555b50505060018360011b0184555b5050505050565b8082018082111561293e57634e487b7160e01b600052601160045260246000fdfea2646970667358221220e78100b12488bba387ea52f7f99ed5951ae2d8b8a98951294d4f4256074cd93b64736f6c63430008100033",
  "immutableReferences": {},
  "source": "// SPDX-License-Identifier: MIT\npragma solidity ^0.8.0;\nimport '@openzeppelin/contracts/utils/math/SafeMath.sol';\nimport '@openzeppelin/contracts/utils/Counters.sol';\nimport './Hotel.sol';\n\ncontract Room is Hotel{\n    using SafeMath for uint256;\n    using Counters for Counters.Counter;\n\n    uint public totalRooms = 0;\n    Counters.Counter private _roomIds;\n\n    struct RoomItem{\n        uint id;\n        uint totalBeds;\n        uint hotelId;\n        uint pricePerNight;\n        uint number;\n        bool isBooked;\n        address payable user;\n        string name;\n        string description;\n    }\n\n    RoomItem[] public rooms;\n\n    mapping(address => RoomItem) public roomOwner;\n    mapping(uint => address) public roomTenant; //who currently resides in the room\n    mapping(uint => RoomItem) public roomItemId; //to help track a room item by it's id\n    mapping(uint => bool) public existingRoomItem;\n    mapping(string => bool) public existingRoomItemName;\n\n    event NewRoomCreated(address indexed user, uint date, uint id);\n    event RoomNightPriceSet(address indexed user, uint price, uint indexed date);\n    event RoomBooked(uint date, address indexed tenant, uint indexed amountPaid, uint indexed roomId);\n\n    constructor() {\n\n    }\n\n    modifier roomExists(uint _roomId){\n        require(existingRoomItem[_roomId] == true,\"Room Does Not Exist\");\n        _;\n    }\n\n    modifier roomNameDoesNotExist(string memory _name) {\n      require(bytes(_name).length > 0,\"Please specify the room name\");\n      require(existingRoomItemName[_name] == false,\"Room Name Exists\");\n      _;\n    }\n\n    modifier onlyRoomOwner(uint _roomId){\n        require(msg.sender == roomItemId[_roomId].user,\"You Do Not Own This Room\");\n        _;\n    }\n\n    modifier isNotBooked(uint _roomId){\n      require(roomItemId[_roomId].isBooked == false,\"Room is occupied\");\n      _;\n    }\n\n    function addRoom(uint _hotelId, uint _totalBeds, uint _pricePerNight, uint _number,string memory _name, string memory _description) public\n    hotelExists(_hotelId)\n    ownsHotel(_hotelId)\n    roomNameDoesNotExist(_name)\n    {\n        require(msg.sender != address(0));\n        require(_totalBeds != 0,\"Number of beds cannot be zero\");\n        require(bytes(_description).length > 0,\"Please specify the room description\");\n        require(_pricePerNight != 0,\"The room night price cannot be zero\");\n        _roomIds.increment();\n        uint currentRoomId = _roomIds.current();\n        uint hotelId = hotelItemId[_hotelId].id;\n        uint hotelItemTotalRooms = hotelItemId[_hotelId].totalRooms;\n        roomItemId[currentRoomId] = RoomItem(currentRoomId,_totalBeds,hotelId,_pricePerNight, _number, false, payable(msg.sender),_name,_description);\n        rooms.push(roomItemId[currentRoomId]);\n        roomOwner[msg.sender] = roomItemId[currentRoomId];\n        hotelItemTotalRooms = hotelItemTotalRooms.add(1);\n        totalRooms = totalRooms.add(1);\n        existingRoomItem[currentRoomId] = true;\n        existingRoomItemName[_name] = true;\n        emit NewRoomCreated(msg.sender, block.timestamp, currentRoomId);\n    }\n\n    function getRoomBioData(uint _roomId) public view roomExists(_roomId) returns(\n        uint _id,\n        uint _numOfBeds,\n        uint _hotelId,\n        uint _pricePerNight,\n        uint _number,\n        bool _isBooked,\n        address _user,\n        string memory _name,\n        string memory _description)\n        {\n            RoomItem storage room = roomItemId[_roomId];\n            _id = room.id;\n            _numOfBeds = room.totalBeds;\n            _hotelId = room.hotelId;\n            _pricePerNight = room.pricePerNight;\n            _number = room.number;\n            _isBooked = room.isBooked;\n            _user = room.user;\n            _name = room.name;\n            _description = room.description;\n        }\n\n    function getName(uint _roomId) external virtual view override returns(string memory){\n      return roomItemId[_roomId].name;\n    }\n\n    function getId(uint _roomId) external virtual view override returns(uint){\n        return roomItemId[_roomId].id;\n    }\n\n    function setNightPrice(uint _roomId, uint _price) public onlyRoomOwner(_roomId){\n        require(_price != 0,\"price Cannot be zero\");\n        RoomItem storage room = roomItemId[_roomId];\n        room.pricePerNight = _price;\n        emit RoomNightPriceSet(msg.sender, _price, block.timestamp);\n    }\n\n    function _setBooked(uint _roomId) internal roomExists(_roomId){\n        RoomItem storage room = roomItemId[_roomId];\n        room.isBooked = true;\n    }\n\n    function listRooms() public view returns(RoomItem[] memory){\n        return rooms;\n    }\n}\n",
  "sourcePath": "D:\\mub\\selfImprovement\\Blockchain\\4_work\\BookingHotel(Frontend)\\src\\contracts\\Room.sol",
  "compiler": {
    "name": "solc",
    "version": "0.8.16+commit.07a7930e.Emscripten.clang"
  },
  "schemaVersion": "3.4.7",
  "updatedAt": "2022-08-26T16:26:16.340Z",
  "devdoc": {
    "kind": "dev",
    "methods": {
      "owner()": {
        "details": "Returns the address of the current owner."
      },
      "renounceOwnership()": {
        "details": "Leaves the contract without owner. It will not be possible to call `onlyOwner` functions anymore. Can only be called by the current owner. NOTE: Renouncing ownership will leave the contract without an owner, thereby removing any functionality that is only available to the owner."
      },
      "transferOwnership(address)": {
        "details": "Transfers ownership of the contract to a new account (`newOwner`). Can only be called by the current owner."
      }
    },
    "version": 1
  },
  "userdoc": {
    "kind": "user",
    "methods": {},
    "version": 1
  }
}